{
  "contractName": "Lottery",
  "abi": [
    {
      "constant": true,
      "inputs": [
        {
          "name": "_identity",
          "type": "address"
        },
        {
          "name": "_hash",
          "type": "bytes32"
        },
        {
          "name": "_signature",
          "type": "bytes"
        }
      ],
      "name": "verifySignature",
      "outputs": [
        {
          "name": "",
          "type": "bool"
        }
      ],
      "payable": false,
      "stateMutability": "view",
      "type": "function"
    },
    {
      "constant": true,
      "inputs": [
        {
          "name": "interfaceId",
          "type": "bytes4"
        }
      ],
      "name": "supportsInterface",
      "outputs": [
        {
          "name": "",
          "type": "bool"
        }
      ],
      "payable": false,
      "stateMutability": "view",
      "type": "function"
    },
    {
      "constant": true,
      "inputs": [],
      "name": "name",
      "outputs": [
        {
          "name": "",
          "type": "string"
        }
      ],
      "payable": false,
      "stateMutability": "view",
      "type": "function"
    },
    {
      "constant": true,
      "inputs": [
        {
          "name": "tokenId",
          "type": "uint256"
        }
      ],
      "name": "getApproved",
      "outputs": [
        {
          "name": "",
          "type": "address"
        }
      ],
      "payable": false,
      "stateMutability": "view",
      "type": "function"
    },
    {
      "constant": false,
      "inputs": [
        {
          "name": "to",
          "type": "address"
        },
        {
          "name": "tokenId",
          "type": "uint256"
        }
      ],
      "name": "approve",
      "outputs": [],
      "payable": false,
      "stateMutability": "nonpayable",
      "type": "function"
    },
    {
      "constant": true,
      "inputs": [],
      "name": "totalSupply",
      "outputs": [
        {
          "name": "",
          "type": "uint256"
        }
      ],
      "payable": false,
      "stateMutability": "view",
      "type": "function"
    },
    {
      "constant": true,
      "inputs": [],
      "name": "iexecClerk",
      "outputs": [
        {
          "name": "",
          "type": "address"
        }
      ],
      "payable": false,
      "stateMutability": "view",
      "type": "function"
    },
    {
      "constant": true,
      "inputs": [],
      "name": "TRUST",
      "outputs": [
        {
          "name": "",
          "type": "uint256"
        }
      ],
      "payable": false,
      "stateMutability": "view",
      "type": "function"
    },
    {
      "constant": false,
      "inputs": [
        {
          "name": "from",
          "type": "address"
        },
        {
          "name": "to",
          "type": "address"
        },
        {
          "name": "tokenId",
          "type": "uint256"
        }
      ],
      "name": "transferFrom",
      "outputs": [],
      "payable": false,
      "stateMutability": "nonpayable",
      "type": "function"
    },
    {
      "constant": true,
      "inputs": [
        {
          "name": "owner",
          "type": "address"
        },
        {
          "name": "index",
          "type": "uint256"
        }
      ],
      "name": "tokenOfOwnerByIndex",
      "outputs": [
        {
          "name": "",
          "type": "uint256"
        }
      ],
      "payable": false,
      "stateMutability": "view",
      "type": "function"
    },
    {
      "constant": false,
      "inputs": [
        {
          "name": "from",
          "type": "address"
        },
        {
          "name": "to",
          "type": "address"
        },
        {
          "name": "tokenId",
          "type": "uint256"
        }
      ],
      "name": "safeTransferFrom",
      "outputs": [],
      "payable": false,
      "stateMutability": "nonpayable",
      "type": "function"
    },
    {
      "constant": true,
      "inputs": [],
      "name": "TAG",
      "outputs": [
        {
          "name": "",
          "type": "bytes32"
        }
      ],
      "payable": false,
      "stateMutability": "view",
      "type": "function"
    },
    {
      "constant": true,
      "inputs": [],
      "name": "m_authorizedApp",
      "outputs": [
        {
          "name": "",
          "type": "address"
        }
      ],
      "payable": false,
      "stateMutability": "view",
      "type": "function"
    },
    {
      "constant": true,
      "inputs": [],
      "name": "PARAMS",
      "outputs": [
        {
          "name": "",
          "type": "string"
        }
      ],
      "payable": false,
      "stateMutability": "view",
      "type": "function"
    },
    {
      "constant": true,
      "inputs": [
        {
          "name": "index",
          "type": "uint256"
        }
      ],
      "name": "tokenByIndex",
      "outputs": [
        {
          "name": "",
          "type": "uint256"
        }
      ],
      "payable": false,
      "stateMutability": "view",
      "type": "function"
    },
    {
      "constant": true,
      "inputs": [
        {
          "name": "tokenId",
          "type": "uint256"
        }
      ],
      "name": "ownerOf",
      "outputs": [
        {
          "name": "",
          "type": "address"
        }
      ],
      "payable": false,
      "stateMutability": "view",
      "type": "function"
    },
    {
      "constant": true,
      "inputs": [
        {
          "name": "owner",
          "type": "address"
        }
      ],
      "name": "balanceOf",
      "outputs": [
        {
          "name": "",
          "type": "uint256"
        }
      ],
      "payable": false,
      "stateMutability": "view",
      "type": "function"
    },
    {
      "constant": true,
      "inputs": [],
      "name": "m_authorizedDataset",
      "outputs": [
        {
          "name": "",
          "type": "address"
        }
      ],
      "payable": false,
      "stateMutability": "view",
      "type": "function"
    },
    {
      "constant": true,
      "inputs": [],
      "name": "symbol",
      "outputs": [
        {
          "name": "",
          "type": "string"
        }
      ],
      "payable": false,
      "stateMutability": "view",
      "type": "function"
    },
    {
      "constant": false,
      "inputs": [
        {
          "name": "to",
          "type": "address"
        },
        {
          "name": "approved",
          "type": "bool"
        }
      ],
      "name": "setApprovalForAll",
      "outputs": [],
      "payable": false,
      "stateMutability": "nonpayable",
      "type": "function"
    },
    {
      "constant": true,
      "inputs": [],
      "name": "iexecHub",
      "outputs": [
        {
          "name": "",
          "type": "address"
        }
      ],
      "payable": false,
      "stateMutability": "view",
      "type": "function"
    },
    {
      "constant": false,
      "inputs": [
        {
          "name": "from",
          "type": "address"
        },
        {
          "name": "to",
          "type": "address"
        },
        {
          "name": "tokenId",
          "type": "uint256"
        },
        {
          "name": "_data",
          "type": "bytes"
        }
      ],
      "name": "safeTransferFrom",
      "outputs": [],
      "payable": false,
      "stateMutability": "nonpayable",
      "type": "function"
    },
    {
      "constant": true,
      "inputs": [
        {
          "name": "tokenId",
          "type": "uint256"
        }
      ],
      "name": "tokenURI",
      "outputs": [
        {
          "name": "",
          "type": "string"
        }
      ],
      "payable": false,
      "stateMutability": "view",
      "type": "function"
    },
    {
      "constant": true,
      "inputs": [],
      "name": "m_authorizedWorkerpool",
      "outputs": [
        {
          "name": "",
          "type": "address"
        }
      ],
      "payable": false,
      "stateMutability": "view",
      "type": "function"
    },
    {
      "constant": true,
      "inputs": [],
      "name": "m_requiredtrust",
      "outputs": [
        {
          "name": "",
          "type": "uint256"
        }
      ],
      "payable": false,
      "stateMutability": "view",
      "type": "function"
    },
    {
      "constant": true,
      "inputs": [
        {
          "name": "owner",
          "type": "address"
        },
        {
          "name": "operator",
          "type": "address"
        }
      ],
      "name": "isApprovedForAll",
      "outputs": [
        {
          "name": "",
          "type": "bool"
        }
      ],
      "payable": false,
      "stateMutability": "view",
      "type": "function"
    },
    {
      "constant": true,
      "inputs": [],
      "name": "m_requiredtag",
      "outputs": [
        {
          "name": "",
          "type": "bytes32"
        }
      ],
      "payable": false,
      "stateMutability": "view",
      "type": "function"
    },
    {
      "constant": true,
      "inputs": [],
      "name": "token",
      "outputs": [
        {
          "name": "",
          "type": "address"
        }
      ],
      "payable": false,
      "stateMutability": "view",
      "type": "function"
    },
    {
      "inputs": [
        {
          "name": "_iexecHubAddr",
          "type": "address"
        },
        {
          "name": "_app",
          "type": "address"
        },
        {
          "name": "_dataset",
          "type": "address"
        },
        {
          "name": "_workerpool",
          "type": "address"
        }
      ],
      "payable": false,
      "stateMutability": "nonpayable",
      "type": "constructor"
    },
    {
      "anonymous": false,
      "inputs": [
        {
          "indexed": true,
          "name": "lotteryid",
          "type": "uint256"
        }
      ],
      "name": "NewLottery",
      "type": "event"
    },
    {
      "anonymous": false,
      "inputs": [
        {
          "indexed": true,
          "name": "lotteryid",
          "type": "uint256"
        },
        {
          "indexed": false,
          "name": "ticketid",
          "type": "uint256"
        }
      ],
      "name": "NewParticipant",
      "type": "event"
    },
    {
      "anonymous": false,
      "inputs": [
        {
          "indexed": true,
          "name": "lotteryid",
          "type": "uint256"
        },
        {
          "indexed": false,
          "name": "taskid",
          "type": "bytes32"
        }
      ],
      "name": "NewRoll",
      "type": "event"
    },
    {
      "anonymous": false,
      "inputs": [
        {
          "indexed": true,
          "name": "lotteryid",
          "type": "uint256"
        },
        {
          "indexed": false,
          "name": "winner",
          "type": "address"
        },
        {
          "indexed": false,
          "name": "value",
          "type": "uint256"
        }
      ],
      "name": "Reward",
      "type": "event"
    },
    {
      "anonymous": false,
      "inputs": [
        {
          "indexed": true,
          "name": "lotteryid",
          "type": "uint256"
        }
      ],
      "name": "Faillure",
      "type": "event"
    },
    {
      "anonymous": false,
      "inputs": [
        {
          "indexed": true,
          "name": "lotteryid",
          "type": "uint256"
        }
      ],
      "name": "Claim",
      "type": "event"
    },
    {
      "anonymous": false,
      "inputs": [
        {
          "indexed": true,
          "name": "from",
          "type": "address"
        },
        {
          "indexed": true,
          "name": "to",
          "type": "address"
        },
        {
          "indexed": true,
          "name": "tokenId",
          "type": "uint256"
        }
      ],
      "name": "Transfer",
      "type": "event"
    },
    {
      "anonymous": false,
      "inputs": [
        {
          "indexed": true,
          "name": "owner",
          "type": "address"
        },
        {
          "indexed": true,
          "name": "approved",
          "type": "address"
        },
        {
          "indexed": true,
          "name": "tokenId",
          "type": "uint256"
        }
      ],
      "name": "Approval",
      "type": "event"
    },
    {
      "anonymous": false,
      "inputs": [
        {
          "indexed": true,
          "name": "owner",
          "type": "address"
        },
        {
          "indexed": true,
          "name": "operator",
          "type": "address"
        },
        {
          "indexed": false,
          "name": "approved",
          "type": "bool"
        }
      ],
      "name": "ApprovalForAll",
      "type": "event"
    },
    {
      "anonymous": false,
      "inputs": [
        {
          "indexed": true,
          "name": "doracleCallId",
          "type": "bytes32"
        }
      ],
      "name": "ResultReady",
      "type": "event"
    },
    {
      "constant": true,
      "inputs": [],
      "name": "countLottery",
      "outputs": [
        {
          "name": "",
          "type": "uint256"
        }
      ],
      "payable": false,
      "stateMutability": "view",
      "type": "function"
    },
    {
      "constant": true,
      "inputs": [
        {
          "name": "lotteryID",
          "type": "uint256"
        }
      ],
      "name": "viewLottery",
      "outputs": [
        {
          "components": [
            {
              "name": "status",
              "type": "uint8"
            },
            {
              "name": "oracleCall",
              "type": "bytes32"
            },
            {
              "name": "ticketPrice",
              "type": "uint256"
            },
            {
              "name": "ticketCount",
              "type": "uint256"
            },
            {
              "name": "ticketMaxCount",
              "type": "uint256"
            },
            {
              "name": "potValue",
              "type": "uint256"
            },
            {
              "name": "crowdsaleDeadline",
              "type": "uint256"
            }
          ],
          "name": "",
          "type": "tuple"
        }
      ],
      "payable": false,
      "stateMutability": "view",
      "type": "function"
    },
    {
      "constant": true,
      "inputs": [
        {
          "name": "ticketID",
          "type": "uint256"
        }
      ],
      "name": "viewTicket",
      "outputs": [
        {
          "components": [
            {
              "name": "lotteryID",
              "type": "uint256"
            },
            {
              "name": "ticketNumber",
              "type": "uint256"
            }
          ],
          "name": "",
          "type": "tuple"
        }
      ],
      "payable": false,
      "stateMutability": "view",
      "type": "function"
    },
    {
      "constant": true,
      "inputs": [
        {
          "name": "oracleCall",
          "type": "bytes32"
        }
      ],
      "name": "oracleCallToLottery",
      "outputs": [
        {
          "name": "",
          "type": "uint256"
        }
      ],
      "payable": false,
      "stateMutability": "view",
      "type": "function"
    },
    {
      "constant": false,
      "inputs": [
        {
          "name": "_ticketPrice",
          "type": "uint256"
        },
        {
          "name": "_ticketMaxCount",
          "type": "uint256"
        },
        {
          "name": "_duration",
          "type": "uint256"
        }
      ],
      "name": "createLottery",
      "outputs": [],
      "payable": false,
      "stateMutability": "nonpayable",
      "type": "function"
    },
    {
      "constant": false,
      "inputs": [
        {
          "name": "_sender",
          "type": "address"
        },
        {
          "name": "",
          "type": "uint256"
        },
        {
          "name": "",
          "type": "address"
        },
        {
          "name": "_ref",
          "type": "bytes"
        }
      ],
      "name": "receiveApproval",
      "outputs": [],
      "payable": false,
      "stateMutability": "nonpayable",
      "type": "function"
    },
    {
      "constant": false,
      "inputs": [
        {
          "name": "lotteryID",
          "type": "uint256"
        }
      ],
      "name": "buyTicket",
      "outputs": [],
      "payable": false,
      "stateMutability": "nonpayable",
      "type": "function"
    },
    {
      "constant": false,
      "inputs": [
        {
          "name": "_lotteryID",
          "type": "uint256"
        },
        {
          "components": [
            {
              "name": "app",
              "type": "address"
            },
            {
              "name": "appprice",
              "type": "uint256"
            },
            {
              "name": "volume",
              "type": "uint256"
            },
            {
              "name": "tag",
              "type": "bytes32"
            },
            {
              "name": "datasetrestrict",
              "type": "address"
            },
            {
              "name": "workerpoolrestrict",
              "type": "address"
            },
            {
              "name": "requesterrestrict",
              "type": "address"
            },
            {
              "name": "salt",
              "type": "bytes32"
            },
            {
              "name": "sign",
              "type": "bytes"
            }
          ],
          "name": "_apporder",
          "type": "tuple"
        },
        {
          "components": [
            {
              "name": "dataset",
              "type": "address"
            },
            {
              "name": "datasetprice",
              "type": "uint256"
            },
            {
              "name": "volume",
              "type": "uint256"
            },
            {
              "name": "tag",
              "type": "bytes32"
            },
            {
              "name": "apprestrict",
              "type": "address"
            },
            {
              "name": "workerpoolrestrict",
              "type": "address"
            },
            {
              "name": "requesterrestrict",
              "type": "address"
            },
            {
              "name": "salt",
              "type": "bytes32"
            },
            {
              "name": "sign",
              "type": "bytes"
            }
          ],
          "name": "_datasetorder",
          "type": "tuple"
        },
        {
          "components": [
            {
              "name": "workerpool",
              "type": "address"
            },
            {
              "name": "workerpoolprice",
              "type": "uint256"
            },
            {
              "name": "volume",
              "type": "uint256"
            },
            {
              "name": "tag",
              "type": "bytes32"
            },
            {
              "name": "category",
              "type": "uint256"
            },
            {
              "name": "trust",
              "type": "uint256"
            },
            {
              "name": "apprestrict",
              "type": "address"
            },
            {
              "name": "datasetrestrict",
              "type": "address"
            },
            {
              "name": "requesterrestrict",
              "type": "address"
            },
            {
              "name": "salt",
              "type": "bytes32"
            },
            {
              "name": "sign",
              "type": "bytes"
            }
          ],
          "name": "_workerpoolorder",
          "type": "tuple"
        }
      ],
      "name": "roll",
      "outputs": [],
      "payable": false,
      "stateMutability": "nonpayable",
      "type": "function"
    },
    {
      "constant": false,
      "inputs": [
        {
          "name": "_doracleCallId",
          "type": "bytes32"
        },
        {
          "name": "",
          "type": "bytes"
        }
      ],
      "name": "receiveResult",
      "outputs": [],
      "payable": false,
      "stateMutability": "nonpayable",
      "type": "function"
    },
    {
      "constant": false,
      "inputs": [
        {
          "name": "_lotteryID",
          "type": "uint256"
        }
      ],
      "name": "claim",
      "outputs": [],
      "payable": false,
      "stateMutability": "nonpayable",
      "type": "function"
    }
  ],
  "bytecode": "0x60806040523480156200001157600080fd5b5060405162004aca38038062004aca8339810160408190526200003491620006e5565b6040518060400160405280600f81526020017f4c6f7474657279205469636b65747300000000000000000000000000000000008152506040518060400160405280600281526020017f4c54000000000000000000000000000000000000000000000000000000000000815250818187806000620000b7826200050e60201b60201c565b1115620000df57600080546001600160a01b0319166001600160a01b03831617905562000299565b600062000109731383c16c927c4a853684d1a9c676986f25e221116001600160e01b036200050e16565b11156200013c57600080546001600160a01b031916731383c16c927c4a853684d1a9c676986f25e2211117905562000299565b60006200016673dbe30645ea7d216c31d09f8c5736fe74de774e636001600160e01b036200050e16565b11156200019957600080546001600160a01b03191673dbe30645ea7d216c31d09f8c5736fe74de774e6317905562000299565b6000620001af816001600160e01b036200050e16565b1115620001cc57600080546001600160a01b031916905562000299565b6000620001f673b3901d04cf645747b99dbbe8f2ee9cb41a89cebf6001600160e01b036200050e16565b11156200022957600080546001600160a01b03191673b3901d04cf645747b99dbbe8f2ee9cb41a89cebf17905562000299565b60006200023f816001600160e01b036200050e16565b11156200025c57600080546001600160a01b031916905562000299565b6040517f08c379a00000000000000000000000000000000000000000000000000000000081526004016200029090620007f8565b60405180910390fd5b6000809054906101000a90046001600160a01b03166001600160a01b031663b01c68466040518163ffffffff1660e01b815260040160206040518083038186803b158015620002e757600080fd5b505afa158015620002fc573d6000803e3d6000fd5b505050506040513d601f19601f82011682018060405250620003229190810190620006bc565b600180546001600160a01b0319166001600160a01b0392909216919091179055506200037090507f01ffc9a70000000000000000000000000000000000000000000000000000000062000512565b620003a47f80ac58cd000000000000000000000000000000000000000000000000000000006001600160e01b036200051216565b620003d87f780e9d63000000000000000000000000000000000000000000000000000000006001600160e01b036200051216565b8151620003ed906010906020850190620005f7565b50805162000403906011906020840190620005f7565b50620004387f5b5e139f000000000000000000000000000000000000000000000000000000006001600160e01b036200051216565b5062000459925085915084905083600160006001600160e01b03620005ae16565b600160009054906101000a90046001600160a01b03166001600160a01b031663fc0c546a6040518163ffffffff1660e01b815260040160206040518083038186803b158015620004a857600080fd5b505afa158015620004bd573d6000803e3d6000fd5b505050506040513d601f19601f82011682018060405250620004e391908101906200074f565b601380546001600160a01b0319166001600160a01b0392909216919091179055506200085e92505050565b3b90565b7fffffffff00000000000000000000000000000000000000000000000000000000808216141562000571576040517f08c379a00000000000000000000000000000000000000000000000000000000081526004016200029090620007e6565b7fffffffff00000000000000000000000000000000000000000000000000000000166000908152600760205260409020805460ff19166001179055565b600280546001600160a01b03199081166001600160a01b039788161790915560038054821695871695909517909455600480549094169290941691909117909155600555600655565b828054600181600116156101000203166002900490600052602060002090601f016020900481019282601f106200063a57805160ff19168380011785556200066a565b828001600101855582156200066a579182015b828111156200066a5782518255916020019190600101906200064d565b50620006789291506200067c565b5090565b6200069991905b8082111562000678576000815560010162000683565b90565b8051620006a98162000839565b92915050565b8051620006a98162000853565b600060208284031215620006cf57600080fd5b6000620006dd84846200069c565b949350505050565b60008060008060808587031215620006fc57600080fd5b60006200070a87876200069c565b94505060206200071d878288016200069c565b935050604062000730878288016200069c565b925050606062000743878288016200069c565b91505092959194509250565b6000602082840312156200076257600080fd5b6000620006dd8484620006af565b60006200077f601c836200080a565b7f4552433136353a20696e76616c696420696e7465726661636520696400000000815260200192915050565b6000620007ba6013836200080a565b7f696e76616c69642d6875622d6164647265737300000000000000000000000000815260200192915050565b60208082528101620006a98162000770565b60208082528101620006a981620007ab565b90815260200190565b6000620006a9826200082d565b6000620006a98262000813565b6001600160a01b031690565b620008448162000813565b81146200085057600080fd5b50565b620008448162000820565b61425c806200086e6000396000f3fe608060405234801561001057600080fd5b50600436106102325760003560e01c80635dd8085511610130578063a22cb465116100b8578063e73482a21161007c578063e73482a21461048c578063e985e9c514610494578063eee83f90146104a7578063f6eba547146104ba578063fc0c546a146104c257610232565b8063a22cb46514610443578063a41f45e914610456578063b88d4fde1461045e578063c87b56dd14610471578063ca2ef3c41461048457610232565b80636d59f770116100ff5780636d59f7701461040557806370a082311461040d57806378dd4ae5146104205780638f4ffcb11461042857806395d89b411461043b57610232565b80635dd80855146103ac5780636352211e146103bf57806367dd74ca146103d25780636b9a7d01146103e557610232565b80632423807a116101be57806342842e0e1161018257806342842e0e1461036e57806347221ac714610381578063482fb13e14610389578063484bcb47146103915780634f6ccce71461039957610232565b80632423807a146103025780632cffaa60146103225780632f745c5914610335578063349cad3814610348578063379607f51461035b57610232565b8063095ea7b311610205578063095ea7b3146102a857806318160ddd146102bd5780631ce3aa0d146102d25780631de012cd146102e757806323b872dd146102ef57610232565b8063017519981461023757806301ffc9a71461026057806306fdde0314610273578063081812fc14610288575b600080fd5b61024a610245366004612fef565b6104ca565b6040516102579190613e34565b60405180910390f35b61024a61026e366004613197565b610565565b61027b610588565b6040516102579190613ec1565b61029b610296366004613114565b61061f565b6040516102579190613d9f565b6102bb6102b6366004613049565b61066b565b005b6102c561073e565b6040516102579190613e42565b6102da610744565b6040516102579190613eb3565b6102c5610753565b6102bb6102fd366004612efa565b610758565b610315610310366004613114565b61078e565b604051610257919061407f565b6102bb6103303660046132d5565b610821565b6102c5610343366004613049565b6108a8565b6102c5610356366004613114565b610909565b6102bb610369366004613114565b61091b565b6102bb61037c366004612efa565b610b88565b6102c5610ba3565b61029b610ba8565b61027b610bb7565b6102c56103a7366004613114565b610bf0565b6102bb6103ba366004613150565b610c37565b61029b6103cd366004613114565b610e09565b6102bb6103e0366004613114565b610e3e565b6103f86103f3366004613114565b610e4b565b604051610257919061409e565b6102c5610e7d565b6102c561041b366004612ea2565b610e83565b61029b610ecc565b6102bb610436366004613079565b610edb565b61027b610f0c565b6102bb610451366004612fbf565b610f6d565b6102da611005565b6102bb61046c366004612f47565b611014565b61027b61047f366004613114565b61104d565b61029b611113565b6102c5611122565b61024a6104a2366004612ec0565b611128565b6102bb6104b536600461323b565b611156565b6102c5611648565b6102da61164e565b60006104d784848461165d565b8061055b5750604051630b135d3f60e11b81526001600160a01b03851690631626ba7e9061050b9086908690600401613e50565b60206040518083038186803b15801561052357600080fd5b505afa158015610537573d6000803e3d6000fd5b505050506040513d601f19601f8201168201806040525061055b91908101906130f6565b90505b9392505050565b6001600160e01b0319811660009081526007602052604090205460ff165b919050565b60108054604080516020601f60026000196101006001881615020190951694909404938401819004810282018101909252828152606093909290918301828280156106145780601f106105e957610100808354040283529160200191610614565b820191906000526020600020905b8154815290600101906020018083116105f757829003601f168201915b505050505090505b90565b600061062a82611732565b61064f5760405162461bcd60e51b815260040161064690613fb2565b60405180910390fd5b506000908152600960205260409020546001600160a01b031690565b600061067682610e09565b9050806001600160a01b0316836001600160a01b031614156106aa5760405162461bcd60e51b815260040161064690613fe2565b336001600160a01b03821614806106c657506106c68133611128565b6106e25760405162461bcd60e51b815260040161064690613f62565b60008281526009602052604080822080546001600160a01b0319166001600160a01b0387811691821790925591518593918516917f8c5be1e5ebec7d5bd14f71427d1e84f3dd0314c0f7b2291e5b200ac8c7c3b92591a4505050565b600e5490565b6001546001600160a01b031681565b600081565b610762338261174f565b61077e5760405162461bcd60e51b815260040161064690614002565b6107898383836117d4565b505050565b6107966124aa565b601482815481106107a357fe5b600091825260209091206040805160e081019091526007909202018054829060ff1660028111156107d057fe5b60028111156107db57fe5b815260018201546020820152600282015460408201526003820154606082015260048201546080820152600582015460a082015260069091015460c09091015292915050565b6014805460009161083590600183016124eb565b905060006014828154811061084657fe5b600091825260208220600790910201805460ff191660011781556002810187905542850160068201556004810186905560405190925083917f3bf0a84e47afbc3eee4652c22da1340ca96a7bc048ee3d5a139fbb8b7898c7ba91a25050505050565b60006108b383610e83565b82106108d15760405162461bcd60e51b815260040161064690613ed2565b6001600160a01b0383166000908152600c602052604090208054839081106108f557fe5b906000526020600020015490505b92915050565b60009081526016602052604090205490565b60006014828154811061092a57fe5b90600052602060002090600702019050610942612517565b600054600183015460405163adccf0d560e01b81526001600160a01b039092169163adccf0d59161097591600401613e42565b60006040518083038186803b15801561098d57600080fd5b505afa1580156109a1573d6000803e3d6000fd5b505050506040513d6000823e601f3d908101601f191682016040526109c99190810190613207565b90506109d3612589565b6001546020830151604051635ba430d960e11b81526001600160a01b039092169163b74861b291610a0691600401613e42565b60006040518083038186803b158015610a1e57600080fd5b505afa158015610a32573d6000803e3d6000fd5b505050506040513d6000823e601f3d908101601f19168201604052610a5a91908101906131d3565b9050600482516004811115610a6b57fe5b14610a7557600080fd5b6000610ab2826040015160400151610aa68460200151604001518560000151604001516117f390919063ffffffff16565b9063ffffffff6117f316565b600154604051632e1a7d4d60e01b81529192506001600160a01b031690632e1a7d4d90610ae3908490600401613e42565b602060405180830381600087803b158015610afd57600080fd5b505af1158015610b11573d6000803e3d6000fd5b505050506040513d601f19601f82011682018060405250610b3591908101906130f6565b506005840154610b4b908263ffffffff6117f316565b600585015560006001850181905560405186917f7bb2b3c10797baccb6f8c4791f1edd6ca2f0d028ee0eda64b01a9a57e3a653f791a25050505050565b61078983838360405180602001604052806000815250611014565b600181565b6002546001600160a01b031681565b6040518060400160405280601f81526020017f707974686f6e33202f6170702f72616e646f6d47656e657261746f722e70790081525081565b6000610bfa61073e565b8210610c185760405162461bcd60e51b815260040161064690614022565b600e8281548110610c2557fe5b90600052602060002001549050919050565b6000828152601660205260408120546014805491929183908110610c5757fe5b6000918252602090912060079091020190506001815460ff166002811115610c7b57fe5b14610c8557600080fd5b60006060610c9286611818565b915091508115610dae576000610cd26103cd86610ccd876003015486806020019051610cc19190810190613132565b9063ffffffff611c6216565b611c92565b601354600586015460405163a9059cbb60e01b81529293506001600160a01b039091169163a9059cbb91610d0b91859190600401613e19565b602060405180830381600087803b158015610d2557600080fd5b505af1158015610d39573d6000803e3d6000fd5b505050506040513d601f19601f82011682018060405250610d5d91908101906130f6565b50835460ff19166002178455600584015460405186917f856af197d834c3fc3bb132a02f7e7e760a2ecd78ecc62fc02c35de22c99c527891610da0918591613e19565b60405180910390a250610e01565b604051610dba90613d94565b6040518091039020818051906020012014610e015760006001840181905560405185917f0cf75fb1fa7599302df2e67726e4ec0583b898ab8df6acd5cbf5c96f3cfa4eee91a25b505050505050565b6000818152600860205260408120546001600160a01b0316806109035760405162461bcd60e51b815260040161064690613f92565b610e483382611cc6565b50565b610e5361262f565b50600090815260156020908152604091829020825180840190935280548352600101549082015290565b60145490565b60006001600160a01b038216610eab5760405162461bcd60e51b815260040161064690613f82565b6001600160a01b0382166000908152600a6020526040902061090390611e50565b6003546001600160a01b031681565b6013546001600160a01b03163314610ef257600080fd5b6000610f0082840184613114565b9050610e018682611cc6565b60118054604080516020601f60026000196101006001881615020190951694909404938401819004810282018101909252828152606093909290918301828280156106145780601f106105e957610100808354040283529160200191610614565b6001600160a01b038216331415610f965760405162461bcd60e51b815260040161064690613f22565b336000818152600b602090815260408083206001600160a01b038716808552925291829020805460ff191685151517905590519091907f17307eab39ab6107e8899845ad3d59bd9653f200f220920489ca2b5937696c3190610ff9908590613e34565b60405180910390a35050565b6000546001600160a01b031681565b61101f848484610758565b61102b84848484611e54565b6110475760405162461bcd60e51b815260040161064690613ee2565b50505050565b606061105882611732565b6110745760405162461bcd60e51b815260040161064690613fd2565b60008281526012602090815260409182902080548351601f6002600019610100600186161502019093169290920491820184900484028101840190945280845290918301828280156111075780601f106110dc57610100808354040283529160200191611107565b820191906000526020600020905b8154815290600101906020018083116110ea57829003601f168201915b50505050509050919050565b6004546001600160a01b031681565b60065481565b6001600160a01b039182166000908152600b6020908152604080832093909416825291909152205460ff1690565b8360006014828154811061116657fe5b906000526020600020906007020190508060060154421161118657600080fd5b60006014878154811061119557fe5b906000526020600020906007020190506000801b8160010154146111b857600080fd5b6002546001600160a01b031615806112585750600254865160015460408051631a2a7bc760e21b81529051611258946001600160a01b03908116949316916368a9ef1c916004808301926020929190829003018186803b15801561121b57600080fd5b505afa15801561122f573d6000803e3d6000fd5b505050506040513d601f19601f820116820180604052506112539190810190613132565b611f19565b6112745760405162461bcd60e51b815260040161064690613f32565b6003546001600160a01b031615806112d75750600354855160015460408051631a2a7bc760e21b815290516112d7946001600160a01b03908116949316916368a9ef1c916004808301926020929190829003018186803b15801561121b57600080fd5b6112f35760405162461bcd60e51b815260040161064690613ff2565b6004546001600160a01b03161580611356575060048054855160015460408051631a2a7bc760e21b81529051611356956001600160a01b0395861695909316926368a9ef1c92808201926020929091829003018186803b15801561121b57600080fd5b6113725760405162461bcd60e51b815260040161064690614012565b61137a612649565b86516001600160a01b039081168252602080890151818401528751821660408085019190915288820151606085015287519092166080808501919091528782015160a08501523060c08501819052600160e08601819052610100860152908801516101208501526000610140850181905261016085015261018084015281518083018352601f81527f707974686f6e33202f6170702f72616e646f6d47656e657261746f722e707900818301526101a0840152905161143d9142918b9101613d62565b60408051601f1981840301815291815281516020909201919091206101c0830152600154905163732e498d60e01b81526001600160a01b039091169063732e498d9061148d90849060040161408d565b602060405180830381600087803b1580156114a757600080fd5b505af11580156114bb573d6000803e3d6000fd5b505050506040513d601f19601f820116820180604052506114df91908101906130f6565b6114e857600080fd5b600061150d8660200151610aa689602001518b602001516117f390919063ffffffff16565b905061151881611f6c565b600583015461152d908263ffffffff61207b16565b6005840155600154604051630558653560e21b81526000916001600160a01b03169063156194d490611569908c908c908c908990600401614032565b602060405180830381600087803b15801561158357600080fd5b505af1158015611597573d6000803e3d6000fd5b505050506040513d601f19601f820116820180604052506115bb9190810190613132565b905060008160006040516020016115d3929190613d62565b60408051601f19818403018152828252805160209182012060018901819055600081815260169092529190208d905591508b907f295dd5bad68b12fb7cf6bab497a9e8f1cc85d8078ba61fd4afa063566af68f1190611633908490613e42565b60405180910390a25050505050505050505050565b60055481565b6013546001600160a01b031681565b6000806000808451604114611678576000935050505061055e565b50505060208201516040830151606084015160001a601b81101561169a57601b015b8060ff16601b141580156116b257508060ff16601c14155b156116c3576000935050505061055e565b600186828585604051600081526020016040526040516116e69493929190613e7e565b6020604051602081039080840390855afa158015611708573d6000803e3d6000fd5b505050602060405103516001600160a01b0316876001600160a01b03161493505050509392505050565b6000908152600860205260409020546001600160a01b0316151590565b600061175a82611732565b6117765760405162461bcd60e51b815260040161064690613f52565b600061178183610e09565b9050806001600160a01b0316846001600160a01b031614806117bc5750836001600160a01b03166117b18461061f565b6001600160a01b0316145b806117cc57506117cc8185611128565b949350505050565b6117df8383836120a3565b6117e983826121a9565b610789828261229e565b60008282018381101561055e5760405162461bcd60e51b815260040161064690613f02565b60006060611824612517565b60005460405163adccf0d560e01b81526001600160a01b039091169063adccf0d590611854908790600401613e42565b60006040518083038186803b15801561186c57600080fd5b505afa158015611880573d6000803e3d6000fd5b505050506040513d6000823e601f3d908101601f191682016040526118a89190810190613207565b90506118b2612589565b6001546020830151604051635ba430d960e11b81526001600160a01b039092169163b74861b2916118e591600401613e42565b60006040518083038186803b1580156118fd57600080fd5b505afa158015611911573d6000803e3d6000fd5b505050506040513d6000823e601f3d908101601f1916820160405261193991908101906131d3565b905060038251600481111561194a57fe5b1461198957600060405180604001604052806014815260200173726573756c742d6e6f742d617661696c61626c6560601b815250935093505050611c5d565b81610180015160405161199c9190613d88565b6040518091039020826101600151146119d55760006040518060600160405280602181526020016141f960219139935093505050611c5d565b6002546001600160a01b031615801590611a3d575060025481515160015460408051631a2a7bc760e21b81529051611a3b946001600160a01b03908116949316916368a9ef1c916004808301926020929190829003018186803b15801561121b57600080fd5b155b15611a785760006040518060400160405280601081526020016f0756e617574686f72697a65642d6170760841b815250935093505050611c5d565b6003546001600160a01b031615801590611ae057506003546020808301515160015460408051631a2a7bc760e21b81529051611ade956001600160a01b03908116959316926368a9ef1c9260048082019391829003018186803b15801561121b57600080fd5b155b15611b1f576000604051806040016040528060148152602001731d5b985d5d1a1bdc9a5e99590b59185d185cd95d60621b815250935093505050611c5d565b6004546001600160a01b031615801590611b8c575060048054604080840151516001548251631a2a7bc760e21b81529251611b8a956001600160a01b0395861695939492909316926368a9ef1c92808201926020929091829003018186803b15801561121b57600080fd5b155b15611bce576000604051806040016040528060178152602001761d5b985d5d1a1bdc9a5e99590b5ddbdc9ad95c9c1bdbdb604a1b815250935093505050611c5d565b60a081015160055490191615611c0f5760006040518060400160405280600b81526020016a696e76616c69642d74616760a81b815250935093505050611c5d565b80606001516006541115611c505760006040518060400160405280600d81526020016c1a5b9d985b1a590b5d1c9d5cdd609a1b815250935093505050611c5d565b5061018001516001925090505b915091565b600081611c815760405162461bcd60e51b815260040161064690613f72565b818381611c8a57fe5b069392505050565b60008282604051602001611ca7929190613e70565b60408051601f1981840301815291905280516020909101209392505050565b80600060148281548110611cd657fe5b906000526020600020906007020190508060060154421115611cf757600080fd5b8060040154816003015410611d0b57600080fd5b600060148481548110611d1a57fe5b6000918252602090912060135460079092020160028101546040516323b872dd60e01b81529193506001600160a01b03909216916323b872dd91611d65918991309190600401613df1565b602060405180830381600087803b158015611d7f57600080fd5b505af1158015611d93573d6000803e3d6000fd5b505050506040513d601f19601f82011682018060405250611db791908101906130f6565b611dc057600080fd5b6000611dd1858360030154886122dc565b9050611dee826002015483600501546117f390919063ffffffff16565b60058301556003820154611e0990600163ffffffff6117f316565b600383015560405185907f0c2a15b70d6924d240df268954ec5451e92d2f62710f46311486de3c1e82e9b390611e40908490613e42565b60405180910390a2505050505050565b5490565b6000611e68846001600160a01b0316612315565b611e74575060016117cc565b604051630a85bd0160e11b81526000906001600160a01b0386169063150b7a0290611ea99033908a9089908990600401613dad565b602060405180830381600087803b158015611ec357600080fd5b505af1158015611ed7573d6000803e3d6000fd5b505050506040513d601f19601f82011682018060405250611efb91908101906131b5565b6001600160e01b031916630a85bd0160e11b14915050949350505050565b6000826001600160a01b0316846001600160a01b0316148061055b5750836001600160a01b031663d202158d611f4e8561231b565b846040518363ffffffff1660e01b815260040161050b929190613e70565b60135460015460405163095ea7b360e01b81526001600160a01b039283169263095ea7b392611fa2929116908590600401613e19565b602060405180830381600087803b158015611fbc57600080fd5b505af1158015611fd0573d6000803e3d6000fd5b505050506040513d601f19601f82011682018060405250611ff491908101906130f6565b5060015460405163b6b55f2560e01b81526001600160a01b039091169063b6b55f2590612025908490600401613e42565b602060405180830381600087803b15801561203f57600080fd5b505af1158015612053573d6000803e3d6000fd5b505050506040513d601f19601f8201168201806040525061207791908101906130f6565b5050565b60008282111561209d5760405162461bcd60e51b815260040161064690613f42565b50900390565b826001600160a01b03166120b682610e09565b6001600160a01b0316146120dc5760405162461bcd60e51b815260040161064690613fc2565b6001600160a01b0382166121025760405162461bcd60e51b815260040161064690613f12565b61210b81612327565b6001600160a01b0383166000908152600a6020526040902061212c90612362565b6001600160a01b0382166000908152600a6020526040902061214d90612379565b60008181526008602052604080822080546001600160a01b0319166001600160a01b0386811691821790925591518493918716917fddf252ad1be2c89b69c2b068fc378daa952ba7f163c4a11628f55a4df523b3ef91a4505050565b6001600160a01b0382166000908152600c60205260408120546121d390600163ffffffff61207b16565b6000838152600d602052604090205490915080821461226e576001600160a01b0384166000908152600c6020526040812080548490811061221057fe5b9060005260206000200154905080600c6000876001600160a01b03166001600160a01b03168152602001908152602001600020838154811061224e57fe5b6000918252602080832090910192909255918252600d9052604090208190555b6001600160a01b0384166000908152600c60205260409020805490612297906000198301612702565b5050505050565b6001600160a01b039091166000908152600c602081815260408084208054868652600d84529185208290559282526001810183559183529091200155565b6000806122e98585611c92565b90506122f58382612382565b600081815260156020526040902085815560010184905590509392505050565b3b151590565b6001600160a01b031690565b6000818152600960205260409020546001600160a01b031615610e4857600090815260096020526040902080546001600160a01b0319169055565b805461237590600163ffffffff61207b16565b9055565b80546001019055565b61238c828261239f565b612396828261229e565b61207781612466565b6001600160a01b0382166123c55760405162461bcd60e51b815260040161064690613fa2565b6123ce81611732565b156123eb5760405162461bcd60e51b815260040161064690613ef2565b600081815260086020908152604080832080546001600160a01b0319166001600160a01b0387169081179091558352600a909152902061242a90612379565b60405181906001600160a01b038416906000907fddf252ad1be2c89b69c2b068fc378daa952ba7f163c4a11628f55a4df523b3ef908290a45050565b600e80546000838152600f60205260408120829055600182018355919091527fbb7b4a454dc3493923482f07822329ed19e8244eff582cc204f8554c3620c3fd0155565b6040805160e0810190915280600081526020016000801916815260200160008152602001600081526020016000815260200160008152602001600081525090565b815481835581811115610789576007028160070283600052602060002091820191016107899190612726565b604080516101a0810190915280600081526020016000801916815260200160008152602001600081526020016000815260200160008152602001600081526020016000801916815260200160008152602001600081526020016060815260200160008019168152602001606081525090565b604051806102a0016040528061259d612772565b81526020016125aa612772565b81526020016125b7612772565b815260200160008152602001600081526020016000801916815260200160006001600160a01b0316815260200160006001600160a01b0316815260200160006001600160a01b031681526020016060815260200160008152602001600081526020016000815260200160008152602001600081525090565b604051806040016040528060008152602001600081525090565b60405180610200016040528060006001600160a01b031681526020016000815260200160006001600160a01b031681526020016000815260200160006001600160a01b031681526020016000815260200160006001600160a01b031681526020016000815260200160008019168152602001600081526020016000815260200160006001600160a01b0316815260200160006001600160a01b031681526020016060815260200160008019168152602001606081525090565b81548183558181111561078957600083815260209020610789918101908301612792565b61061c91905b8082111561276e57805460ff1916815560006001820181905560028201819055600382018190556004820181905560058201819055600682015560070161272c565b5090565b604080516060810182526000808252602082018190529181019190915290565b61061c91905b8082111561276e5760008155600101612798565b8035610903816141bc565b8051610903816141bc565b600082601f8301126127d357600080fd5b81516127e66127e1826140d2565b6140ac565b9150818183526020840193506020810190508385602084028201111561280b57600080fd5b60005b83811015612837578161282188826127b7565b845250602092830192919091019060010161280e565b5050505092915050565b8035610903816141d0565b8051610903816141d0565b8035610903816141d9565b8051610903816141d9565b8035610903816141e2565b8051610903816141e2565b60008083601f84011261289557600080fd5b5081356001600160401b038111156128ac57600080fd5b6020830191508360018202830111156128c457600080fd5b9250929050565b600082601f8301126128dc57600080fd5b81356128ea6127e1826140f2565b9150808252602083016020830185838301111561290657600080fd5b612911838284614170565b50505092915050565b600082601f83011261292b57600080fd5b81516129396127e1826140f2565b9150808252602083016020830185838301111561295557600080fd5b61291183828461417c565b8051610903816141eb565b6000610120828403121561297e57600080fd5b6129896101206140ac565b9050600061299784846127ac565b82525060206129a884848301612857565b60208301525060406129bc84828501612857565b60408301525060606129d084828501612857565b60608301525060806129e4848285016127ac565b60808301525060a06129f8848285016127ac565b60a08301525060c0612a0c848285016127ac565b60c08301525060e0612a2084828501612857565b60e0830152506101008201356001600160401b03811115612a4057600080fd5b612a4c848285016128cb565b6101008301525092915050565b60006102a08284031215612a6c57600080fd5b612a776101e06140ac565b90506000612a858484612bd0565b8252506060612a9684848301612bd0565b60208301525060c0612aaa84828501612bd0565b604083015250610120612abf84828501612862565b606083015250610140612ad484828501612862565b608083015250610160612ae984828501612862565b60a083015250610180612afe848285016127b7565b60c0830152506101a0612b13848285016127b7565b60e0830152506101c0612b28848285016127b7565b610100830152506101e08201516001600160401b03811115612b4957600080fd5b612b558482850161291a565b61012083015250610200612b6b84828501612862565b61014083015250610220612b8184828501612862565b61016083015250610240612b9784828501612862565b61018083015250610260612bad84828501612862565b6101a083015250610280612bc384828501612862565b6101c08301525092915050565b600060608284031215612be257600080fd5b612bec60606140ac565b90506000612bfa84846127b7565b8252506020612c0b848483016127b7565b6020830152506040612c1f84828501612862565b60408301525092915050565b60006101a08284031215612c3e57600080fd5b612c496101a06140ac565b90506000612c578484612960565b8252506020612c6884848301612862565b6020830152506040612c7c84828501612862565b6040830152506060612c9084828501612862565b6060830152506080612ca484828501612862565b60808301525060a0612cb884828501612862565b60a08301525060c0612ccc84828501612862565b60c08301525060e0612ce084828501612862565b60e083015250610100612cf584828501612862565b61010083015250610120612d0b84828501612862565b610120830152506101408201516001600160401b03811115612d2c57600080fd5b612d38848285016127c2565b61014083015250610160612d4e84828501612862565b610160830152506101808201516001600160401b03811115612d6f57600080fd5b612d7b8482850161291a565b6101808301525092915050565b60006101608284031215612d9b57600080fd5b612da66101606140ac565b90506000612db484846127ac565b8252506020612dc584848301612857565b6020830152506040612dd984828501612857565b6040830152506060612ded84828501612857565b6060830152506080612e0184828501612857565b60808301525060a0612e1584828501612857565b60a08301525060c0612e29848285016127ac565b60c08301525060e0612e3d848285016127ac565b60e083015250610100612e52848285016127ac565b61010083015250610120612e6884828501612857565b610120830152506101408201356001600160401b03811115612e8957600080fd5b612e95848285016128cb565b6101408301525092915050565b600060208284031215612eb457600080fd5b60006117cc84846127ac565b60008060408385031215612ed357600080fd5b6000612edf85856127ac565b9250506020612ef0858286016127ac565b9150509250929050565b600080600060608486031215612f0f57600080fd5b6000612f1b86866127ac565b9350506020612f2c868287016127ac565b9250506040612f3d86828701612857565b9150509250925092565b60008060008060808587031215612f5d57600080fd5b6000612f6987876127ac565b9450506020612f7a878288016127ac565b9350506040612f8b87828801612857565b92505060608501356001600160401b03811115612fa757600080fd5b612fb3878288016128cb565b91505092959194509250565b60008060408385031215612fd257600080fd5b6000612fde85856127ac565b9250506020612ef085828601612841565b60008060006060848603121561300457600080fd5b600061301086866127ac565b935050602061302186828701612857565b92505060408401356001600160401b0381111561303d57600080fd5b612f3d868287016128cb565b6000806040838503121561305c57600080fd5b600061306885856127ac565b9250506020612ef085828601612857565b60008060008060006080868803121561309157600080fd5b600061309d88886127ac565b95505060206130ae88828901612857565b94505060406130bf888289016127ac565b93505060608601356001600160401b038111156130db57600080fd5b6130e788828901612883565b92509250509295509295909350565b60006020828403121561310857600080fd5b60006117cc848461284c565b60006020828403121561312657600080fd5b60006117cc8484612857565b60006020828403121561314457600080fd5b60006117cc8484612862565b6000806040838503121561316357600080fd5b600061316f8585612857565b92505060208301356001600160401b0381111561318b57600080fd5b612ef0858286016128cb565b6000602082840312156131a957600080fd5b60006117cc848461286d565b6000602082840312156131c757600080fd5b60006117cc8484612878565b6000602082840312156131e557600080fd5b81516001600160401b038111156131fb57600080fd5b6117cc84828501612a59565b60006020828403121561321957600080fd5b81516001600160401b0381111561322f57600080fd5b6117cc84828501612c2b565b6000806000806080858703121561325157600080fd5b600061325d8787612857565b94505060208501356001600160401b0381111561327957600080fd5b6132858782880161296b565b93505060408501356001600160401b038111156132a157600080fd5b6132ad8782880161296b565b92505060608501356001600160401b038111156132c957600080fd5b612fb387828801612d88565b6000806000606084860312156132ea57600080fd5b60006132f68686612857565b9350506020612f2c86828701612857565b61331081614153565b82525050565b61331081614126565b61331081614131565b6133108161061c565b61331061333d8261061c565b61061c565b600061334d82614119565b613357818561411d565b935061336781856020860161417c565b613370816141a8565b9093019392505050565b600061338582614119565b61338f8185610583565b935061339f81856020860161417c565b9290920192915050565b6133108161415a565b61331081614165565b60006133c8602b8361411d565b7f455243373231456e756d657261626c653a206f776e657220696e646578206f7581526a74206f6620626f756e647360a81b602082015260400192915050565b600061341560328361411d565b7f4552433732313a207472616e7366657220746f206e6f6e20455243373231526581527131b2b4bb32b91034b6b83632b6b2b73a32b960711b602082015260400192915050565b6000613469601c8361411d565b7f4552433732313a20746f6b656e20616c7265616479206d696e74656400000000815260200192915050565b60006134a2601b8361411d565b7f536166654d6174683a206164646974696f6e206f766572666c6f770000000000815260200192915050565b60006134db60248361411d565b7f4552433732313a207472616e7366657220746f20746865207a65726f206164648152637265737360e01b602082015260400192915050565b600061352160198361411d565b7f4552433732313a20617070726f766520746f2063616c6c657200000000000000815260200192915050565b600061355a60108361411d565b6f0756e617574686f72697a65642d6170760841b815260200192915050565b6000613586601e8361411d565b7f536166654d6174683a207375627472616374696f6e206f766572666c6f770000815260200192915050565b60006135bf602c8361411d565b7f4552433732313a206f70657261746f7220717565727920666f72206e6f6e657881526b34b9ba32b73a103a37b5b2b760a11b602082015260400192915050565b600061360d60388361411d565b7f4552433732313a20617070726f76652063616c6c6572206973206e6f74206f7781527f6e6572206e6f7220617070726f76656420666f7220616c6c0000000000000000602082015260400192915050565b600061366c60188361411d565b7f536166654d6174683a206d6f64756c6f206279207a65726f0000000000000000815260200192915050565b60006136a5602a8361411d565b7f4552433732313a2062616c616e636520717565727920666f7220746865207a65815269726f206164647265737360b01b602082015260400192915050565b60006136f160298361411d565b7f4552433732313a206f776e657220717565727920666f72206e6f6e657869737481526832b73a103a37b5b2b760b91b602082015260400192915050565b600061373c60208361411d565b7f4552433732313a206d696e7420746f20746865207a65726f2061646472657373815260200192915050565b6000613775602c8361411d565b7f4552433732313a20617070726f76656420717565727920666f72206e6f6e657881526b34b9ba32b73a103a37b5b2b760a11b602082015260400192915050565b60006137c360298361411d565b7f4552433732313a207472616e73666572206f6620746f6b656e2074686174206981526839903737ba1037bbb760b91b602082015260400192915050565b600061380e602f8361411d565b7f4552433732314d657461646174613a2055524920717565727920666f72206e6f81526e3732bc34b9ba32b73a103a37b5b2b760891b602082015260400192915050565b600061385f60218361411d565b7f4552433732313a20617070726f76616c20746f2063757272656e74206f776e658152603960f91b602082015260400192915050565b60006138a260148361411d565b731d5b985d5d1a1bdc9a5e99590b59185d185cd95d60621b815260200192915050565b60006138d260318361411d565b7f4552433732313a207472616e736665722063616c6c6572206973206e6f74206f8152701ddb995c881b9bdc88185c1c1c9bdd9959607a1b602082015260400192915050565b600061392560178361411d565b761d5b985d5d1a1bdc9a5e99590b5ddbdc9ad95c9c1bdbdb604a1b815260200192915050565b6000613958602c8361411d565b7f455243373231456e756d657261626c653a20676c6f62616c20696e646578206f81526b7574206f6620626f756e647360a01b602082015260400192915050565b60006139a6601483610583565b73726573756c742d6e6f742d617661696c61626c6560601b815260140192915050565b80516000906101208401906139de8582613316565b5060208301516139f16020860182613328565b506040830151613a046040860182613328565b506060830151613a176060860182613328565b506080830151613a2a6080860182613316565b5060a0830151613a3d60a0860182613316565b5060c0830151613a5060c0860182613316565b5060e0830151613a6360e0860182613328565b50610100830151848203610100860152613a7d8282613342565b95945050505050565b805160e0830190613a9784826133b2565b506020820151613aaa6020850182613328565b506040820151613abd6040850182613328565b506060820151613ad06060850182613328565b506080820151613ae36080850182613328565b5060a0820151613af660a0850182613328565b5060c082015161104760c0850182613328565b8051600090610200840190613b1e8582613316565b506020830151613b316020860182613328565b506040830151613b446040860182613316565b506060830151613b576060860182613328565b506080830151613b6a6080860182613316565b5060a0830151613b7d60a0860182613328565b5060c0830151613b9060c0860182613316565b5060e0830151613ba360e0860182613328565b50610100830151613bb8610100860182613328565b50610120830151613bcd610120860182613328565b50610140830151613be2610140860182613328565b50610160830151613bf7610160860182613316565b50610180830151613c0c610180860182613316565b506101a08301518482036101a0860152613c268282613342565b9150506101c0830151613c3d6101c0860182613328565b506101e08301518482036101e0860152613a7d8282613342565b80516040830190613c688482613328565b5060208201516110476020850182613328565b8051600090610160840190613c908582613316565b506020830151613ca36020860182613328565b506040830151613cb66040860182613328565b506060830151613cc96060860182613328565b506080830151613cdc6080860182613328565b5060a0830151613cef60a0860182613328565b5060c0830151613d0260c0860182613316565b5060e0830151613d1560e0860182613316565b50610100830151613d2a610100860182613316565b50610120830151613d3f610120860182613328565b50610140830151848203610140860152613a7d8282613342565b6133108161414d565b6000613d6e8285613331565b602082019150613d7e8284613331565b5060200192915050565b600061055e828461337a565b600061090382613999565b602081016109038284613316565b60808101613dbb8287613307565b613dc86020830186613316565b613dd56040830185613328565b8181036060830152613de78184613342565b9695505050505050565b60608101613dff8286613316565b613e0c6020830185613316565b6117cc6040830184613328565b60408101613e278285613316565b61055e6020830184613328565b60208101610903828461331f565b602081016109038284613328565b60408101613e5e8285613328565b818103602083015261055b8184613342565b60408101613e278285613328565b60808101613e8c8287613328565b613e996020830186613d59565b613ea66040830185613328565b613a7d6060830184613328565b6020810161090382846133a9565b6020808252810161055e8184613342565b60208082528101610903816133bb565b6020808252810161090381613408565b602080825281016109038161345c565b6020808252810161090381613495565b60208082528101610903816134ce565b6020808252810161090381613514565b602080825281016109038161354d565b6020808252810161090381613579565b60208082528101610903816135b2565b6020808252810161090381613600565b602080825281016109038161365f565b6020808252810161090381613698565b60208082528101610903816136e4565b602080825281016109038161372f565b6020808252810161090381613768565b60208082528101610903816137b6565b6020808252810161090381613801565b6020808252810161090381613852565b6020808252810161090381613895565b60208082528101610903816138c5565b6020808252810161090381613918565b602080825281016109038161394b565b6080808252810161404381876139c9565b9050818103602083015261405781866139c9565b9050818103604083015261406b8185613c7b565b90508181036060830152613de78184613b09565b60e081016109038284613a86565b6020808252810161055e8184613b09565b604081016109038284613c57565b6040518181016001600160401b03811182821017156140ca57600080fd5b604052919050565b60006001600160401b038211156140e857600080fd5b5060209081020190565b60006001600160401b0382111561410857600080fd5b506020601f91909101601f19160190565b5190565b90815260200190565b60006109038261231b565b151590565b6001600160e01b03191690565b80610583816141b2565b60ff1690565b6000610903825b600061090382614126565b600061090382614143565b82818337506000910152565b60005b8381101561419757818101518382015260200161417f565b838111156110475750506000910152565b601f01601f191690565b60038110610e4857fe5b6141c581614126565b8114610e4857600080fd5b6141c581614131565b6141c58161061c565b6141c581614136565b60058110610e4857600080fdfe726573756c742d6e6f742d76616c6964617465642d62792d636f6e73656e737573a365627a7a723058206fd6c56cc964c08fbaadcfd0da081804dcbefaf7f43da909e0e935247605f6e26c6578706572696d656e74616cf564736f6c634300050a0040",
  "source": "pragma solidity ^0.5.10;\npragma experimental ABIEncoderV2;\n\nimport \"iexec-doracle-base/contracts/IexecDoracle.sol\";\nimport \"openzeppelin-solidity/contracts/token/ERC20/IERC20.sol\";\nimport \"openzeppelin-solidity/contracts/token/ERC721/ERC721Full.sol\";\n\n\ncontract Lottery is IexecDoracle, ERC721Full\n{\n\tusing SafeMath for uint256;\n\n\tbytes32 public constant TAG    = 0x0000000000000000000000000000000000000000000000000000000000000001; // NO TEE\n\tuint256 public constant TRUST  = 0; // No replication\n\tstring  public constant PARAMS = \"python3 /app/randomGenerator.py\";\n\n\tIERC20 public token;\n\n\tenum LotteryStatusEnum\n\t{\n\t\tNULL,\n\t\tACTIVE,\n\t\tFINISHED\n\t}\n\tstruct LotteryMetadata\n\t{\n\t\tLotteryStatusEnum status;\n\t\tbytes32 oracleCall;\n\t\tuint256 ticketPrice;\n\t\tuint256 ticketCount;\n\t\tuint256 ticketMaxCount;\n\t\tuint256 potValue;\n\t\tuint256 crowdsaleDeadline;\n\t}\n\n\tstruct TicketMetadata\n\t{\n\t\tuint256 lotteryID;\n\t\tuint256 ticketNumber;\n\t}\n\n\tLotteryMetadata[]                  private m_lotteryMetadata;\n\tmapping(uint256 => TicketMetadata) private m_ticketMetadata;\n\tmapping(bytes32 => uint256       ) private m_oracleCallToLottery;\n\n\tevent NewLottery    (uint256 indexed lotteryid);\n\tevent NewParticipant(uint256 indexed lotteryid, uint256 ticketid);\n\tevent NewRoll       (uint256 indexed lotteryid, bytes32 taskid);\n\tevent Reward        (uint256 indexed lotteryid, address winner, uint256 value);\n\tevent Faillure      (uint256 indexed lotteryid);\n\tevent Claim         (uint256 indexed lotteryid);\n\n\tmodifier crowSaleActive(uint256 _lotteryID)\n\t{\n\t\tLotteryMetadata storage details = m_lotteryMetadata[_lotteryID];\n\t\trequire(now <= details.crowdsaleDeadline);\n\t\trequire(details.ticketCount < details.ticketMaxCount);\n\t\t_;\n\t}\n\tmodifier crowSaleFinished(uint256 _lotteryID)\n\t{\n\t\tLotteryMetadata storage details = m_lotteryMetadata[_lotteryID];\n\t\trequire(now > details.crowdsaleDeadline);\n\t\t_;\n\t}\n\n\t/***************************************************************************\n\t *                               Constructor                               *\n\t ***************************************************************************/\n\tconstructor(\n\t\taddress _iexecHubAddr,\n\t\taddress _app,\n\t\taddress _dataset,\n\t\taddress _workerpool)\n\tpublic IexecDoracle(_iexecHubAddr) ERC721Full(\"Lottery Tickets\", \"LT\")\n\t{\n\t\t_iexecDoracleUpdateSettings(\n\t\t\t_app,\n\t\t\t_dataset,\n\t\t\t_workerpool,\n\t\t\tTAG,\n\t\t\tTRUST\n\t\t);\n\t\ttoken = iexecClerk.token();\n\t}\n\n\tfunction countLottery       (                  ) external view returns (uint256               ) { return m_lotteryMetadata.length;          }\n\tfunction viewLottery        (uint256 lotteryID ) external view returns (LotteryMetadata memory) { return m_lotteryMetadata    [lotteryID];  }\n\tfunction viewTicket         (uint256 ticketID  ) external view returns (TicketMetadata  memory) { return m_ticketMetadata     [ticketID];   }\n\tfunction oracleCallToLottery(bytes32 oracleCall) external view returns (uint256               ) { return m_oracleCallToLottery[oracleCall]; }\n\n\t/***************************************************************************\n\t *                          LOTTERY - Create game                          *\n\t ***************************************************************************/\n\tfunction createLottery(\n\t\tuint256 _ticketPrice,\n\t\tuint256 _ticketMaxCount,\n\t\tuint256 _duration)\n\tpublic\n\t{\n\t\tuint256 lotteryID = m_lotteryMetadata.length++;\n\n\t\tLotteryMetadata storage details = m_lotteryMetadata[lotteryID];\n\t\tdetails.status            = LotteryStatusEnum.ACTIVE;\n\t\tdetails.ticketPrice       = _ticketPrice;\n\t\tdetails.crowdsaleDeadline = now + _duration;\n\t\tdetails.ticketMaxCount    = _ticketMaxCount;\n\n\t\temit NewLottery(lotteryID);\n\t}\n\n\t/***************************************************************************\n\t *                          LOTTERY - Buy ticket                           *\n\t ***************************************************************************/\n\tfunction receiveApproval(address _sender, uint256, address, bytes calldata _ref)\n\t\texternal\n\t{\n\t\trequire(msg.sender == address(token));\n\t\t(uint256 lotteryID) = abi.decode(_ref, (uint256));\n\t\t_buyTicket(_sender, lotteryID);\n\t}\n\n\tfunction buyTicket(uint256 lotteryID)\n\t\texternal\n\t{\n\t\t_buyTicket(msg.sender, lotteryID);\n\t}\n\n\tfunction _buyTicket(address _buyer, uint256 _lotteryID)\n\tinternal crowSaleActive(_lotteryID)\n\t{\n\t\t// Get lottery details\n\t\tLotteryMetadata storage details = m_lotteryMetadata[_lotteryID];\n\n\t\t// Pay in tokens\n\t\trequire(token.transferFrom(_buyer, address(this), details.ticketPrice));\n\n\t\t// Emit ticket\n\t\tuint256 ticketID = mintTicket(_lotteryID, details.ticketCount, _buyer);\n\n\t\t// Details update\n\t\tdetails.potValue    = details.potValue.add(details.ticketPrice);\n\t\tdetails.ticketCount = details.ticketCount.add(1);\n\n\t\temit NewParticipant(_lotteryID, ticketID);\n\t}\n\n\t/***************************************************************************\n\t *                             LOTTERY - Roll                              *\n\t ***************************************************************************/\n\tfunction roll(\n\t\tuint256                                  _lotteryID,\n\t\tIexecODBLibOrders.AppOrder        memory _apporder,\n\t\tIexecODBLibOrders.DatasetOrder    memory _datasetorder,\n\t\tIexecODBLibOrders.WorkerpoolOrder memory _workerpoolorder)\n\tpublic crowSaleFinished(_lotteryID)\n\t{\n\t\t// Get lottery details\n\t\tLotteryMetadata storage details = m_lotteryMetadata[_lotteryID];\n\n\t\t// Check lottery status\n\t\trequire(details.oracleCall == bytes32(0));\n\n\t\t// Check whitelist\n\t\trequire(m_authorizedApp        == address(0) || checkIdentity(m_authorizedApp,        _apporder.app,               iexecClerk.GROUPMEMBER_PURPOSE()), \"unauthorized-app\");\n\t\trequire(m_authorizedDataset    == address(0) || checkIdentity(m_authorizedDataset,    _datasetorder.dataset,       iexecClerk.GROUPMEMBER_PURPOSE()), \"unauthorized-dataset\");\n\t\trequire(m_authorizedWorkerpool == address(0) || checkIdentity(m_authorizedWorkerpool, _workerpoolorder.workerpool, iexecClerk.GROUPMEMBER_PURPOSE()), \"unauthorized-workerpool\");\n\n\t\t// Create order\n\t\tIexecODBLibOrders.RequestOrder memory requestorder;\n\t\trequestorder.app                = _apporder.app;                                //address\n\t\trequestorder.appmaxprice        = _apporder.appprice;                           //uint256\n\t\trequestorder.dataset            = _datasetorder.dataset;                        //address\n\t\trequestorder.datasetmaxprice    = _datasetorder.datasetprice;                   //uint256\n\t\trequestorder.workerpool         = _workerpoolorder.workerpool;                  //address\n\t\trequestorder.workerpoolmaxprice = _workerpoolorder.workerpoolprice;             //uint256\n\t\trequestorder.requester          = address(this);                                //address\n\t\trequestorder.volume             = 1;                                            //uint256\n\t\trequestorder.tag                = TAG;                                          //bytes32\n\t\trequestorder.category           = _workerpoolorder.category;                    //uint256\n\t\trequestorder.trust              = TRUST;                                        //uint256\n\t\trequestorder.beneficiary        = address(0);                                   //address\n\t\trequestorder.callback           = address(this);                                //address\n\t\trequestorder.params             = PARAMS;                                       //string\n\t\trequestorder.salt               = keccak256(abi.encodePacked(now, _lotteryID)); //bytes32\n\n\t\t// Sign order\n\t\trequire(iexecClerk.signRequestOrder(requestorder));\n\n\t\t// Deposit for deal & remove from pot\n\t\tuint256 dealprice = _apporder.appprice.add(_datasetorder.datasetprice).add(_workerpoolorder.workerpoolprice);\n\t\tiExecDeposit(dealprice);\n\t\tdetails.potValue = details.potValue.sub(dealprice);\n\n\t\t// Match and retreive details\n\t\tbytes32 dealid = iexecClerk.matchOrders(_apporder, _datasetorder, _workerpoolorder, requestorder);\n\t\tbytes32 taskid = keccak256(abi.encodePacked(dealid, uint256(0)));\n\n\t\t// Register\n\t\tdetails.oracleCall            = taskid;\n\t\tm_oracleCallToLottery[taskid] = _lotteryID;\n\n\t\temit NewRoll(_lotteryID, taskid);\n\t}\n\n\t/***************************************************************************\n\t *                            LOTTERY - Resolve                            *\n\t ***************************************************************************/\n\tfunction receiveResult(bytes32 _doracleCallId, bytes memory)\n\tpublic\n\t{\n\t\tuint256 lotteryID = m_oracleCallToLottery[_doracleCallId];\n\n\t\t// Get lottery details\n\t\tLotteryMetadata storage details = m_lotteryMetadata[lotteryID];\n\t\trequire(details.status == LotteryStatusEnum.ACTIVE);\n\n\t\t// Get result\n\t\t(bool success, bytes memory results) = _iexecDoracleGetResults(_doracleCallId);\n\n\t\tif (success)\n\t\t{\n\t\t\t// Identify winner\n\t\t\taddress winner = ownerOf(getTicketID(\n\t\t\t\tlotteryID,\n\t\t\t\tabi.decode(results, (uint256)).mod(details.ticketCount) // random value modulo ticketCount\n\t\t\t));\n\n\t\t\t// Reward\n\t\t\ttoken.transfer(winner, details.potValue);\n\n\t\t\t// Lock for good (prevent reentry)\n\t\t\tdetails.status = LotteryStatusEnum.FINISHED;\n\n\t\t\t// Notify\n\t\t\temit Reward(lotteryID, winner, details.potValue);\n\t\t}\n\t\telse if (keccak256(results) != keccak256(\"result-not-available\")) // any error (other than task not finished)\n\t\t{\n\t\t\t// Unlock\n\t\t\tdetails.oracleCall = bytes32(0);\n\n\t\t\t// Notify\n\t\t\temit Faillure(lotteryID);\n\t\t}\n\t}\n\n\t/***************************************************************************\n\t *                             LOTTERY - Claim                             *\n\t ***************************************************************************/\n\tfunction claim(uint256 _lotteryID)\n\tpublic\n\t{\n\t\t// Get lottery details\n\t\tLotteryMetadata storage details = m_lotteryMetadata[_lotteryID];\n\n\t\t// Get task & dealvalue\n\t\tIexecODBLibCore.Task memory task = iexecHub.viewTask(details.oracleCall);\n\t\tIexecODBLibCore.Deal memory deal = iexecClerk.viewDeal(task.dealid);\n\n\t\t// Check task status\n\t\trequire(task.status == IexecODBLibCore.TaskStatusEnum.FAILLED);\n\t\tuint256 dealprice = deal.app.price.add(deal.dataset.price).add(deal.workerpool.price);\n\n\t\t// Refund\n\t\tiexecClerk.withdraw(dealprice);\n\t\tdetails.potValue   = details.potValue.add(dealprice);\n\t\tdetails.oracleCall = bytes32(0);\n\n\t\temit Claim(_lotteryID);\n\t}\n\n\t/***************************************************************************\n\t *                                  Tools                                  *\n\t ***************************************************************************/\n\tfunction getTicketID(uint256 _lotteryID, uint256 _ticketIndex)\n\tinternal pure returns (uint256)\n\t{\n\t\treturn uint256(keccak256(abi.encode(_lotteryID, _ticketIndex)));\n\t}\n\n\tfunction mintTicket(uint256 _lotteryID, uint256 _ticketIndex, address _buyer)\n\tinternal returns (uint256)\n\t{\n\t\tuint256 ticketID = getTicketID(_lotteryID, _ticketIndex);\n\t\t_mint(_buyer, ticketID);\n\t\tm_ticketMetadata[ticketID].lotteryID    = _lotteryID;\n\t\tm_ticketMetadata[ticketID].ticketNumber = _ticketIndex;\n\t\treturn ticketID;\n\t}\n\n\tfunction iExecDeposit(uint256 value)\n\tinternal\n\t{\n\t\ttoken.approve(address(iexecClerk), value);\n\t\tiexecClerk.deposit(value);\n\t}\n}\n",
  "sourcePath": "/home/amxx/Work/iExec/code/iexec-doracle-lottery/contracts/Lottery.sol",
  "compiler": {
    "name": "solc",
    "version": "0.5.10+commit.5a6ea5b1.Emscripten.clang"
  },
  "schemaVersion": "3.0.11",
  "updatedAt": "2019-08-05T13:19:47.492Z",
  "devdoc": {
    "methods": {
      "approve(address,uint256)": {
        "details": "Approves another address to transfer the given token ID The zero address indicates there is no approved address. There can only be one approved address per token at a given time. Can only be called by the token owner or an approved operator.",
        "params": {
          "to": "address to be approved for the given token ID",
          "tokenId": "uint256 ID of the token to be approved"
        }
      },
      "balanceOf(address)": {
        "details": "Gets the balance of the specified address.",
        "params": {
          "owner": "address to query the balance of"
        },
        "return": "uint256 representing the amount owned by the passed address"
      },
      "getApproved(uint256)": {
        "details": "Gets the approved address for a token ID, or zero if no address set Reverts if the token ID does not exist.",
        "params": {
          "tokenId": "uint256 ID of the token to query the approval of"
        },
        "return": "address currently approved for the given token ID"
      },
      "isApprovedForAll(address,address)": {
        "details": "Tells whether an operator is approved by a given owner.",
        "params": {
          "operator": "operator address which you want to query the approval of",
          "owner": "owner address which you want to query the approval of"
        },
        "return": "bool whether the given operator is approved by the given owner"
      },
      "name()": {
        "details": "Gets the token name.",
        "return": "string representing the token name"
      },
      "ownerOf(uint256)": {
        "details": "Gets the owner of the specified token ID.",
        "params": {
          "tokenId": "uint256 ID of the token to query the owner of"
        },
        "return": "address currently marked as the owner of the given token ID"
      },
      "safeTransferFrom(address,address,uint256)": {
        "details": "Safely transfers the ownership of a given token ID to another address If the target address is a contract, it must implement `onERC721Received`, which is called upon a safe transfer, and return the magic value `bytes4(keccak256(\"onERC721Received(address,address,uint256,bytes)\"))`; otherwise, the transfer is reverted. Requires the msg.sender to be the owner, approved, or operator",
        "params": {
          "from": "current owner of the token",
          "to": "address to receive the ownership of the given token ID",
          "tokenId": "uint256 ID of the token to be transferred"
        }
      },
      "safeTransferFrom(address,address,uint256,bytes)": {
        "details": "Safely transfers the ownership of a given token ID to another address If the target address is a contract, it must implement `onERC721Received`, which is called upon a safe transfer, and return the magic value `bytes4(keccak256(\"onERC721Received(address,address,uint256,bytes)\"))`; otherwise, the transfer is reverted. Requires the msg.sender to be the owner, approved, or operator",
        "params": {
          "_data": "bytes data to send along with a safe transfer check",
          "from": "current owner of the token",
          "to": "address to receive the ownership of the given token ID",
          "tokenId": "uint256 ID of the token to be transferred"
        }
      },
      "setApprovalForAll(address,bool)": {
        "details": "Sets or unsets the approval of a given operator An operator is allowed to transfer all tokens of the sender on their behalf.",
        "params": {
          "approved": "representing the status of the approval to be set",
          "to": "operator address to set the approval"
        }
      },
      "supportsInterface(bytes4)": {
        "details": "See `IERC165.supportsInterface`.     * Time complexity O(1), guaranteed to always use less than 30 000 gas."
      },
      "symbol()": {
        "details": "Gets the token symbol.",
        "return": "string representing the token symbol"
      },
      "tokenByIndex(uint256)": {
        "details": "Gets the token ID at a given index of all the tokens in this contract Reverts if the index is greater or equal to the total number of tokens.",
        "params": {
          "index": "uint256 representing the index to be accessed of the tokens list"
        },
        "return": "uint256 token ID at the given index of the tokens list"
      },
      "tokenOfOwnerByIndex(address,uint256)": {
        "details": "Gets the token ID at a given index of the tokens list of the requested owner.",
        "params": {
          "index": "uint256 representing the index to be accessed of the requested tokens list",
          "owner": "address owning the tokens list to be accessed"
        },
        "return": "uint256 token ID at the given index of the tokens list owned by the requested address"
      },
      "tokenURI(uint256)": {
        "details": "Returns an URI for a given token ID. Throws if the token ID does not exist. May return an empty string.",
        "params": {
          "tokenId": "uint256 ID of the token to query"
        }
      },
      "totalSupply()": {
        "details": "Gets the total amount of tokens stored by the contract.",
        "return": "uint256 representing the total amount of tokens"
      },
      "transferFrom(address,address,uint256)": {
        "details": "Transfers the ownership of a given token ID to another address. Usage of this method is discouraged, use `safeTransferFrom` whenever possible. Requires the msg.sender to be the owner, approved, or operator.",
        "params": {
          "from": "current owner of the token",
          "to": "address to receive the ownership of the given token ID",
          "tokenId": "uint256 ID of the token to be transferred"
        }
      }
    }
  },
  "userdoc": {
    "methods": {
      "claim(uint256)": {
        "notice": "*************************************************************************                            LOTTERY - Claim                             ***************************************************************************"
      },
      "constructor": "*************************************************************************                              Constructor                               ***************************************************************************",
      "createLottery(uint256,uint256,uint256)": {
        "notice": "*************************************************************************                         LOTTERY - Create game                          ***************************************************************************"
      },
      "receiveApproval(address,uint256,address,bytes)": {
        "notice": "*************************************************************************                         LOTTERY - Buy ticket                           ***************************************************************************"
      },
      "receiveResult(bytes32,bytes)": {
        "notice": "*************************************************************************                           LOTTERY - Resolve                            ***************************************************************************"
      },
      "roll(uint256,(address,uint256,uint256,bytes32,address,address,address,bytes32,bytes),(address,uint256,uint256,bytes32,address,address,address,bytes32,bytes),(address,uint256,uint256,bytes32,uint256,uint256,address,address,address,bytes32,bytes))": {
        "notice": "*************************************************************************                            LOTTERY - Roll                              ***************************************************************************"
      }
    }
  }
}