{
  "contractName": "Lottery",
  "abi": [
    {
      "constant": true,
      "inputs": [
        {
          "name": "_identity",
          "type": "address"
        },
        {
          "name": "_hash",
          "type": "bytes32"
        },
        {
          "name": "_signature",
          "type": "bytes"
        }
      ],
      "name": "verifySignature",
      "outputs": [
        {
          "name": "",
          "type": "bool"
        }
      ],
      "payable": false,
      "stateMutability": "view",
      "type": "function"
    },
    {
      "constant": true,
      "inputs": [
        {
          "name": "interfaceId",
          "type": "bytes4"
        }
      ],
      "name": "supportsInterface",
      "outputs": [
        {
          "name": "",
          "type": "bool"
        }
      ],
      "payable": false,
      "stateMutability": "view",
      "type": "function"
    },
    {
      "constant": true,
      "inputs": [],
      "name": "name",
      "outputs": [
        {
          "name": "",
          "type": "string"
        }
      ],
      "payable": false,
      "stateMutability": "view",
      "type": "function"
    },
    {
      "constant": true,
      "inputs": [
        {
          "name": "tokenId",
          "type": "uint256"
        }
      ],
      "name": "getApproved",
      "outputs": [
        {
          "name": "",
          "type": "address"
        }
      ],
      "payable": false,
      "stateMutability": "view",
      "type": "function"
    },
    {
      "constant": false,
      "inputs": [
        {
          "name": "to",
          "type": "address"
        },
        {
          "name": "tokenId",
          "type": "uint256"
        }
      ],
      "name": "approve",
      "outputs": [],
      "payable": false,
      "stateMutability": "nonpayable",
      "type": "function"
    },
    {
      "constant": true,
      "inputs": [],
      "name": "totalSupply",
      "outputs": [
        {
          "name": "",
          "type": "uint256"
        }
      ],
      "payable": false,
      "stateMutability": "view",
      "type": "function"
    },
    {
      "constant": true,
      "inputs": [],
      "name": "iexecClerk",
      "outputs": [
        {
          "name": "",
          "type": "address"
        }
      ],
      "payable": false,
      "stateMutability": "view",
      "type": "function"
    },
    {
      "constant": true,
      "inputs": [],
      "name": "TRUST",
      "outputs": [
        {
          "name": "",
          "type": "uint256"
        }
      ],
      "payable": false,
      "stateMutability": "view",
      "type": "function"
    },
    {
      "constant": false,
      "inputs": [
        {
          "name": "from",
          "type": "address"
        },
        {
          "name": "to",
          "type": "address"
        },
        {
          "name": "tokenId",
          "type": "uint256"
        }
      ],
      "name": "transferFrom",
      "outputs": [],
      "payable": false,
      "stateMutability": "nonpayable",
      "type": "function"
    },
    {
      "constant": true,
      "inputs": [
        {
          "name": "owner",
          "type": "address"
        },
        {
          "name": "index",
          "type": "uint256"
        }
      ],
      "name": "tokenOfOwnerByIndex",
      "outputs": [
        {
          "name": "",
          "type": "uint256"
        }
      ],
      "payable": false,
      "stateMutability": "view",
      "type": "function"
    },
    {
      "constant": false,
      "inputs": [
        {
          "name": "from",
          "type": "address"
        },
        {
          "name": "to",
          "type": "address"
        },
        {
          "name": "tokenId",
          "type": "uint256"
        }
      ],
      "name": "safeTransferFrom",
      "outputs": [],
      "payable": false,
      "stateMutability": "nonpayable",
      "type": "function"
    },
    {
      "constant": true,
      "inputs": [],
      "name": "TAG",
      "outputs": [
        {
          "name": "",
          "type": "bytes32"
        }
      ],
      "payable": false,
      "stateMutability": "view",
      "type": "function"
    },
    {
      "constant": true,
      "inputs": [],
      "name": "m_authorizedApp",
      "outputs": [
        {
          "name": "",
          "type": "address"
        }
      ],
      "payable": false,
      "stateMutability": "view",
      "type": "function"
    },
    {
      "constant": true,
      "inputs": [],
      "name": "PARAMS",
      "outputs": [
        {
          "name": "",
          "type": "string"
        }
      ],
      "payable": false,
      "stateMutability": "view",
      "type": "function"
    },
    {
      "constant": true,
      "inputs": [
        {
          "name": "index",
          "type": "uint256"
        }
      ],
      "name": "tokenByIndex",
      "outputs": [
        {
          "name": "",
          "type": "uint256"
        }
      ],
      "payable": false,
      "stateMutability": "view",
      "type": "function"
    },
    {
      "constant": true,
      "inputs": [
        {
          "name": "tokenId",
          "type": "uint256"
        }
      ],
      "name": "ownerOf",
      "outputs": [
        {
          "name": "",
          "type": "address"
        }
      ],
      "payable": false,
      "stateMutability": "view",
      "type": "function"
    },
    {
      "constant": true,
      "inputs": [
        {
          "name": "owner",
          "type": "address"
        }
      ],
      "name": "balanceOf",
      "outputs": [
        {
          "name": "",
          "type": "uint256"
        }
      ],
      "payable": false,
      "stateMutability": "view",
      "type": "function"
    },
    {
      "constant": true,
      "inputs": [],
      "name": "m_authorizedDataset",
      "outputs": [
        {
          "name": "",
          "type": "address"
        }
      ],
      "payable": false,
      "stateMutability": "view",
      "type": "function"
    },
    {
      "constant": true,
      "inputs": [],
      "name": "symbol",
      "outputs": [
        {
          "name": "",
          "type": "string"
        }
      ],
      "payable": false,
      "stateMutability": "view",
      "type": "function"
    },
    {
      "constant": false,
      "inputs": [
        {
          "name": "to",
          "type": "address"
        },
        {
          "name": "approved",
          "type": "bool"
        }
      ],
      "name": "setApprovalForAll",
      "outputs": [],
      "payable": false,
      "stateMutability": "nonpayable",
      "type": "function"
    },
    {
      "constant": true,
      "inputs": [],
      "name": "iexecHub",
      "outputs": [
        {
          "name": "",
          "type": "address"
        }
      ],
      "payable": false,
      "stateMutability": "view",
      "type": "function"
    },
    {
      "constant": false,
      "inputs": [
        {
          "name": "from",
          "type": "address"
        },
        {
          "name": "to",
          "type": "address"
        },
        {
          "name": "tokenId",
          "type": "uint256"
        },
        {
          "name": "_data",
          "type": "bytes"
        }
      ],
      "name": "safeTransferFrom",
      "outputs": [],
      "payable": false,
      "stateMutability": "nonpayable",
      "type": "function"
    },
    {
      "constant": true,
      "inputs": [
        {
          "name": "tokenId",
          "type": "uint256"
        }
      ],
      "name": "tokenURI",
      "outputs": [
        {
          "name": "",
          "type": "string"
        }
      ],
      "payable": false,
      "stateMutability": "view",
      "type": "function"
    },
    {
      "constant": true,
      "inputs": [],
      "name": "m_authorizedWorkerpool",
      "outputs": [
        {
          "name": "",
          "type": "address"
        }
      ],
      "payable": false,
      "stateMutability": "view",
      "type": "function"
    },
    {
      "constant": true,
      "inputs": [],
      "name": "m_requiredtrust",
      "outputs": [
        {
          "name": "",
          "type": "uint256"
        }
      ],
      "payable": false,
      "stateMutability": "view",
      "type": "function"
    },
    {
      "constant": true,
      "inputs": [
        {
          "name": "owner",
          "type": "address"
        },
        {
          "name": "operator",
          "type": "address"
        }
      ],
      "name": "isApprovedForAll",
      "outputs": [
        {
          "name": "",
          "type": "bool"
        }
      ],
      "payable": false,
      "stateMutability": "view",
      "type": "function"
    },
    {
      "constant": true,
      "inputs": [],
      "name": "m_requiredtag",
      "outputs": [
        {
          "name": "",
          "type": "bytes32"
        }
      ],
      "payable": false,
      "stateMutability": "view",
      "type": "function"
    },
    {
      "constant": true,
      "inputs": [],
      "name": "token",
      "outputs": [
        {
          "name": "",
          "type": "address"
        }
      ],
      "payable": false,
      "stateMutability": "view",
      "type": "function"
    },
    {
      "inputs": [
        {
          "name": "_iexecHubAddr",
          "type": "address"
        },
        {
          "name": "_app",
          "type": "address"
        },
        {
          "name": "_dataset",
          "type": "address"
        },
        {
          "name": "_workerpool",
          "type": "address"
        }
      ],
      "payable": false,
      "stateMutability": "nonpayable",
      "type": "constructor"
    },
    {
      "anonymous": false,
      "inputs": [
        {
          "indexed": true,
          "name": "lotteryid",
          "type": "uint256"
        }
      ],
      "name": "NewLottery",
      "type": "event"
    },
    {
      "anonymous": false,
      "inputs": [
        {
          "indexed": true,
          "name": "lotteryid",
          "type": "uint256"
        },
        {
          "indexed": false,
          "name": "ticketid",
          "type": "uint256"
        }
      ],
      "name": "NewParticipant",
      "type": "event"
    },
    {
      "anonymous": false,
      "inputs": [
        {
          "indexed": true,
          "name": "lotteryid",
          "type": "uint256"
        },
        {
          "indexed": false,
          "name": "taskid",
          "type": "bytes32"
        }
      ],
      "name": "NewRoll",
      "type": "event"
    },
    {
      "anonymous": false,
      "inputs": [
        {
          "indexed": true,
          "name": "lotteryid",
          "type": "uint256"
        },
        {
          "indexed": false,
          "name": "winner",
          "type": "address"
        },
        {
          "indexed": false,
          "name": "value",
          "type": "uint256"
        }
      ],
      "name": "Reward",
      "type": "event"
    },
    {
      "anonymous": false,
      "inputs": [
        {
          "indexed": true,
          "name": "lotteryid",
          "type": "uint256"
        }
      ],
      "name": "Faillure",
      "type": "event"
    },
    {
      "anonymous": false,
      "inputs": [
        {
          "indexed": true,
          "name": "lotteryid",
          "type": "uint256"
        }
      ],
      "name": "Claim",
      "type": "event"
    },
    {
      "anonymous": false,
      "inputs": [
        {
          "indexed": true,
          "name": "from",
          "type": "address"
        },
        {
          "indexed": true,
          "name": "to",
          "type": "address"
        },
        {
          "indexed": true,
          "name": "tokenId",
          "type": "uint256"
        }
      ],
      "name": "Transfer",
      "type": "event"
    },
    {
      "anonymous": false,
      "inputs": [
        {
          "indexed": true,
          "name": "owner",
          "type": "address"
        },
        {
          "indexed": true,
          "name": "approved",
          "type": "address"
        },
        {
          "indexed": true,
          "name": "tokenId",
          "type": "uint256"
        }
      ],
      "name": "Approval",
      "type": "event"
    },
    {
      "anonymous": false,
      "inputs": [
        {
          "indexed": true,
          "name": "owner",
          "type": "address"
        },
        {
          "indexed": true,
          "name": "operator",
          "type": "address"
        },
        {
          "indexed": false,
          "name": "approved",
          "type": "bool"
        }
      ],
      "name": "ApprovalForAll",
      "type": "event"
    },
    {
      "anonymous": false,
      "inputs": [
        {
          "indexed": true,
          "name": "doracleCallId",
          "type": "bytes32"
        }
      ],
      "name": "ResultReady",
      "type": "event"
    },
    {
      "constant": true,
      "inputs": [],
      "name": "countLottery",
      "outputs": [
        {
          "name": "",
          "type": "uint256"
        }
      ],
      "payable": false,
      "stateMutability": "view",
      "type": "function"
    },
    {
      "constant": true,
      "inputs": [
        {
          "name": "lotteryID",
          "type": "uint256"
        }
      ],
      "name": "viewLottery",
      "outputs": [
        {
          "components": [
            {
              "name": "status",
              "type": "uint8"
            },
            {
              "name": "oracleCall",
              "type": "bytes32"
            },
            {
              "name": "ticketPrice",
              "type": "uint256"
            },
            {
              "name": "ticketCount",
              "type": "uint256"
            },
            {
              "name": "ticketMaxCount",
              "type": "uint256"
            },
            {
              "name": "potValue",
              "type": "uint256"
            },
            {
              "name": "crowdsaleDeadline",
              "type": "uint256"
            }
          ],
          "name": "",
          "type": "tuple"
        }
      ],
      "payable": false,
      "stateMutability": "view",
      "type": "function"
    },
    {
      "constant": true,
      "inputs": [
        {
          "name": "ticketID",
          "type": "uint256"
        }
      ],
      "name": "viewTicket",
      "outputs": [
        {
          "components": [
            {
              "name": "lotteryID",
              "type": "uint256"
            },
            {
              "name": "ticketNumber",
              "type": "uint256"
            }
          ],
          "name": "",
          "type": "tuple"
        }
      ],
      "payable": false,
      "stateMutability": "view",
      "type": "function"
    },
    {
      "constant": true,
      "inputs": [
        {
          "name": "oracleCall",
          "type": "bytes32"
        }
      ],
      "name": "oracleCallToLottery",
      "outputs": [
        {
          "name": "",
          "type": "uint256"
        }
      ],
      "payable": false,
      "stateMutability": "view",
      "type": "function"
    },
    {
      "constant": false,
      "inputs": [
        {
          "name": "_ticketPrice",
          "type": "uint256"
        },
        {
          "name": "_ticketMaxCount",
          "type": "uint256"
        },
        {
          "name": "_duration",
          "type": "uint256"
        }
      ],
      "name": "createLottery",
      "outputs": [],
      "payable": false,
      "stateMutability": "nonpayable",
      "type": "function"
    },
    {
      "constant": false,
      "inputs": [
        {
          "name": "_sender",
          "type": "address"
        },
        {
          "name": "",
          "type": "uint256"
        },
        {
          "name": "",
          "type": "address"
        },
        {
          "name": "_ref",
          "type": "bytes"
        }
      ],
      "name": "receiveApproval",
      "outputs": [],
      "payable": false,
      "stateMutability": "nonpayable",
      "type": "function"
    },
    {
      "constant": false,
      "inputs": [
        {
          "name": "lotteryID",
          "type": "uint256"
        }
      ],
      "name": "buyTicket",
      "outputs": [],
      "payable": false,
      "stateMutability": "nonpayable",
      "type": "function"
    },
    {
      "constant": false,
      "inputs": [
        {
          "name": "_lotteryID",
          "type": "uint256"
        },
        {
          "components": [
            {
              "name": "app",
              "type": "address"
            },
            {
              "name": "appprice",
              "type": "uint256"
            },
            {
              "name": "volume",
              "type": "uint256"
            },
            {
              "name": "tag",
              "type": "bytes32"
            },
            {
              "name": "datasetrestrict",
              "type": "address"
            },
            {
              "name": "workerpoolrestrict",
              "type": "address"
            },
            {
              "name": "requesterrestrict",
              "type": "address"
            },
            {
              "name": "salt",
              "type": "bytes32"
            },
            {
              "name": "sign",
              "type": "bytes"
            }
          ],
          "name": "_apporder",
          "type": "tuple"
        },
        {
          "components": [
            {
              "name": "dataset",
              "type": "address"
            },
            {
              "name": "datasetprice",
              "type": "uint256"
            },
            {
              "name": "volume",
              "type": "uint256"
            },
            {
              "name": "tag",
              "type": "bytes32"
            },
            {
              "name": "apprestrict",
              "type": "address"
            },
            {
              "name": "workerpoolrestrict",
              "type": "address"
            },
            {
              "name": "requesterrestrict",
              "type": "address"
            },
            {
              "name": "salt",
              "type": "bytes32"
            },
            {
              "name": "sign",
              "type": "bytes"
            }
          ],
          "name": "_datasetorder",
          "type": "tuple"
        },
        {
          "components": [
            {
              "name": "workerpool",
              "type": "address"
            },
            {
              "name": "workerpoolprice",
              "type": "uint256"
            },
            {
              "name": "volume",
              "type": "uint256"
            },
            {
              "name": "tag",
              "type": "bytes32"
            },
            {
              "name": "category",
              "type": "uint256"
            },
            {
              "name": "trust",
              "type": "uint256"
            },
            {
              "name": "apprestrict",
              "type": "address"
            },
            {
              "name": "datasetrestrict",
              "type": "address"
            },
            {
              "name": "requesterrestrict",
              "type": "address"
            },
            {
              "name": "salt",
              "type": "bytes32"
            },
            {
              "name": "sign",
              "type": "bytes"
            }
          ],
          "name": "_workerpoolorder",
          "type": "tuple"
        }
      ],
      "name": "roll",
      "outputs": [],
      "payable": false,
      "stateMutability": "nonpayable",
      "type": "function"
    },
    {
      "constant": false,
      "inputs": [
        {
          "name": "_doracleCallId",
          "type": "bytes32"
        },
        {
          "name": "",
          "type": "bytes"
        }
      ],
      "name": "receiveResult",
      "outputs": [],
      "payable": false,
      "stateMutability": "nonpayable",
      "type": "function"
    },
    {
      "constant": false,
      "inputs": [
        {
          "name": "_lotteryID",
          "type": "uint256"
        }
      ],
      "name": "claim",
      "outputs": [],
      "payable": false,
      "stateMutability": "nonpayable",
      "type": "function"
    }
  ],
  "bytecode": "0x60806040523480156200001157600080fd5b5060405162004a7238038062004a728339810160408190526200003491620006e4565b6040518060400160405280600f81526020017f4c6f7474657279205469636b65747300000000000000000000000000000000008152506040518060400160405280600281526020017f4c54000000000000000000000000000000000000000000000000000000000000815250818187806000620000b7826200050d60201b60201c565b1115620000df57600080546001600160a01b0319166001600160a01b03831617905562000299565b600062000109731383c16c927c4a853684d1a9c676986f25e221116001600160e01b036200050d16565b11156200013c57600080546001600160a01b031916731383c16c927c4a853684d1a9c676986f25e2211117905562000299565b60006200016673dbe30645ea7d216c31d09f8c5736fe74de774e636001600160e01b036200050d16565b11156200019957600080546001600160a01b03191673dbe30645ea7d216c31d09f8c5736fe74de774e6317905562000299565b6000620001af816001600160e01b036200050d16565b1115620001cc57600080546001600160a01b031916905562000299565b6000620001f673b3901d04cf645747b99dbbe8f2ee9cb41a89cebf6001600160e01b036200050d16565b11156200022957600080546001600160a01b03191673b3901d04cf645747b99dbbe8f2ee9cb41a89cebf17905562000299565b60006200023f816001600160e01b036200050d16565b11156200025c57600080546001600160a01b031916905562000299565b6040517f08c379a00000000000000000000000000000000000000000000000000000000081526004016200029090620007f7565b60405180910390fd5b6000809054906101000a90046001600160a01b03166001600160a01b031663b01c68466040518163ffffffff1660e01b815260040160206040518083038186803b158015620002e757600080fd5b505afa158015620002fc573d6000803e3d6000fd5b505050506040513d601f19601f82011682018060405250620003229190810190620006bb565b600180546001600160a01b0319166001600160a01b0392909216919091179055506200037090507f01ffc9a70000000000000000000000000000000000000000000000000000000062000511565b620003a47f80ac58cd000000000000000000000000000000000000000000000000000000006001600160e01b036200051116565b620003d87f780e9d63000000000000000000000000000000000000000000000000000000006001600160e01b036200051116565b8151620003ed906010906020850190620005f6565b50805162000403906011906020840190620005f6565b50620004387f5b5e139f000000000000000000000000000000000000000000000000000000006001600160e01b036200051116565b50620004589250859150849050836000806001600160e01b03620005ad16565b600160009054906101000a90046001600160a01b03166001600160a01b031663fc0c546a6040518163ffffffff1660e01b815260040160206040518083038186803b158015620004a757600080fd5b505afa158015620004bc573d6000803e3d6000fd5b505050506040513d601f19601f82011682018060405250620004e291908101906200074e565b601380546001600160a01b0319166001600160a01b0392909216919091179055506200085d92505050565b3b90565b7fffffffff00000000000000000000000000000000000000000000000000000000808216141562000570576040517f08c379a00000000000000000000000000000000000000000000000000000000081526004016200029090620007e5565b7fffffffff00000000000000000000000000000000000000000000000000000000166000908152600760205260409020805460ff19166001179055565b600280546001600160a01b03199081166001600160a01b039788161790915560038054821695871695909517909455600480549094169290941691909117909155600555600655565b828054600181600116156101000203166002900490600052602060002090601f016020900481019282601f106200063957805160ff191683800117855562000669565b8280016001018555821562000669579182015b82811115620006695782518255916020019190600101906200064c565b50620006779291506200067b565b5090565b6200069891905b8082111562000677576000815560010162000682565b90565b8051620006a88162000838565b92915050565b8051620006a88162000852565b600060208284031215620006ce57600080fd5b6000620006dc84846200069b565b949350505050565b60008060008060808587031215620006fb57600080fd5b60006200070987876200069b565b94505060206200071c878288016200069b565b93505060406200072f878288016200069b565b925050606062000742878288016200069b565b91505092959194509250565b6000602082840312156200076157600080fd5b6000620006dc8484620006ae565b60006200077e601c8362000809565b7f4552433136353a20696e76616c696420696e7465726661636520696400000000815260200192915050565b6000620007b960138362000809565b7f696e76616c69642d6875622d6164647265737300000000000000000000000000815260200192915050565b60208082528101620006a8816200076f565b60208082528101620006a881620007aa565b90815260200190565b6000620006a8826200082c565b6000620006a88262000812565b6001600160a01b031690565b620008438162000812565b81146200084f57600080fd5b50565b62000843816200081f565b614205806200086d6000396000f3fe608060405234801561001057600080fd5b50600436106102325760003560e01c80635dd8085511610130578063a22cb465116100b8578063e73482a21161007c578063e73482a214610484578063e985e9c51461048c578063eee83f901461049f578063f6eba547146104b2578063fc0c546a146104ba57610232565b8063a22cb4651461043b578063a41f45e91461044e578063b88d4fde14610456578063c87b56dd14610469578063ca2ef3c41461047c57610232565b80636d59f770116100ff5780636d59f770146103fd57806370a082311461040557806378dd4ae5146104185780638f4ffcb11461042057806395d89b411461043357610232565b80635dd80855146103a45780636352211e146103b757806367dd74ca146103ca5780636b9a7d01146103dd57610232565b80632423807a116101be57806342842e0e1161018257806342842e0e1461036e57806347221ac7146102e7578063482fb13e14610381578063484bcb47146103895780634f6ccce71461039157610232565b80632423807a146103025780632cffaa60146103225780632f745c5914610335578063349cad3814610348578063379607f51461035b57610232565b8063095ea7b311610205578063095ea7b3146102a857806318160ddd146102bd5780631ce3aa0d146102d25780631de012cd146102e757806323b872dd146102ef57610232565b8063017519981461023757806301ffc9a71461026057806306fdde0314610273578063081812fc14610288575b600080fd5b61024a610245366004612f98565b6104c2565b6040516102579190613ddd565b60405180910390f35b61024a61026e366004613140565b61055d565b61027b610580565b6040516102579190613e6a565b61029b6102963660046130bd565b610617565b6040516102579190613d48565b6102bb6102b6366004612ff2565b610663565b005b6102c5610736565b6040516102579190613deb565b6102da61073c565b6040516102579190613e5c565b6102c561074b565b6102bb6102fd366004612ea3565b610750565b6103156103103660046130bd565b610786565b6040516102579190614028565b6102bb61033036600461327e565b610819565b6102c5610343366004612ff2565b6108a0565b6102c56103563660046130bd565b610901565b6102bb6103693660046130bd565b610913565b6102bb61037c366004612ea3565b610b80565b61029b610b9b565b61027b610baa565b6102c561039f3660046130bd565b610bbd565b6102bb6103b23660046130f9565b610c04565b61029b6103c53660046130bd565b610dd6565b6102bb6103d83660046130bd565b610e0b565b6103f06103eb3660046130bd565b610e18565b6040516102579190614047565b6102c5610e4a565b6102c5610413366004612e4b565b610e50565b61029b610e99565b6102bb61042e366004613022565b610ea8565b61027b610ed9565b6102bb610449366004612f68565b610f3a565b6102da610fd2565b6102bb610464366004612ef0565b610fe1565b61027b6104773660046130bd565b61101a565b61029b6110e0565b6102c56110ef565b61024a61049a366004612e69565b6110f5565b6102bb6104ad3660046131e4565b611123565b6102c56115f1565b6102da6115f7565b60006104cf848484611606565b806105535750604051630b135d3f60e11b81526001600160a01b03851690631626ba7e906105039086908690600401613df9565b60206040518083038186803b15801561051b57600080fd5b505afa15801561052f573d6000803e3d6000fd5b505050506040513d601f19601f82011682018060405250610553919081019061309f565b90505b9392505050565b6001600160e01b0319811660009081526007602052604090205460ff165b919050565b60108054604080516020601f600260001961010060018816150201909516949094049384018190048102820181019092528281526060939092909183018282801561060c5780601f106105e15761010080835404028352916020019161060c565b820191906000526020600020905b8154815290600101906020018083116105ef57829003601f168201915b505050505090505b90565b6000610622826116db565b6106475760405162461bcd60e51b815260040161063e90613f5b565b60405180910390fd5b506000908152600960205260409020546001600160a01b031690565b600061066e82610dd6565b9050806001600160a01b0316836001600160a01b031614156106a25760405162461bcd60e51b815260040161063e90613f8b565b336001600160a01b03821614806106be57506106be81336110f5565b6106da5760405162461bcd60e51b815260040161063e90613f0b565b60008281526009602052604080822080546001600160a01b0319166001600160a01b0387811691821790925591518593918516917f8c5be1e5ebec7d5bd14f71427d1e84f3dd0314c0f7b2291e5b200ac8c7c3b92591a4505050565b600e5490565b6001546001600160a01b031681565b600081565b61075a33826116f8565b6107765760405162461bcd60e51b815260040161063e90613fab565b61078183838361177d565b505050565b61078e612453565b6014828154811061079b57fe5b600091825260209091206040805160e081019091526007909202018054829060ff1660028111156107c857fe5b60028111156107d357fe5b815260018201546020820152600282015460408201526003820154606082015260048201546080820152600582015460a082015260069091015460c09091015292915050565b6014805460009161082d9060018301612494565b905060006014828154811061083e57fe5b600091825260208220600790910201805460ff191660011781556002810187905542850160068201556004810186905560405190925083917f3bf0a84e47afbc3eee4652c22da1340ca96a7bc048ee3d5a139fbb8b7898c7ba91a25050505050565b60006108ab83610e50565b82106108c95760405162461bcd60e51b815260040161063e90613e7b565b6001600160a01b0383166000908152600c602052604090208054839081106108ed57fe5b906000526020600020015490505b92915050565b60009081526016602052604090205490565b60006014828154811061092257fe5b9060005260206000209060070201905061093a6124c0565b600054600183015460405163adccf0d560e01b81526001600160a01b039092169163adccf0d59161096d91600401613deb565b60006040518083038186803b15801561098557600080fd5b505afa158015610999573d6000803e3d6000fd5b505050506040513d6000823e601f3d908101601f191682016040526109c191908101906131b0565b90506109cb612532565b6001546020830151604051635ba430d960e11b81526001600160a01b039092169163b74861b2916109fe91600401613deb565b60006040518083038186803b158015610a1657600080fd5b505afa158015610a2a573d6000803e3d6000fd5b505050506040513d6000823e601f3d908101601f19168201604052610a52919081019061317c565b9050600482516004811115610a6357fe5b14610a6d57600080fd5b6000610aaa826040015160400151610a9e84602001516040015185600001516040015161179c90919063ffffffff16565b9063ffffffff61179c16565b600154604051632e1a7d4d60e01b81529192506001600160a01b031690632e1a7d4d90610adb908490600401613deb565b602060405180830381600087803b158015610af557600080fd5b505af1158015610b09573d6000803e3d6000fd5b505050506040513d601f19601f82011682018060405250610b2d919081019061309f565b506005840154610b43908263ffffffff61179c16565b600585015560006001850181905560405186917f7bb2b3c10797baccb6f8c4791f1edd6ca2f0d028ee0eda64b01a9a57e3a653f791a25050505050565b61078183838360405180602001604052806000815250610fe1565b6002546001600160a01b031681565b6040518060200160405280600081525081565b6000610bc7610736565b8210610be55760405162461bcd60e51b815260040161063e90613fcb565b600e8281548110610bf257fe5b90600052602060002001549050919050565b6000828152601660205260408120546014805491929183908110610c2457fe5b6000918252602090912060079091020190506001815460ff166002811115610c4857fe5b14610c5257600080fd5b60006060610c5f866117c1565b915091508115610d7b576000610c9f6103c586610c9a876003015486806020019051610c8e91908101906130db565b9063ffffffff611c0b16565b611c3b565b601354600586015460405163a9059cbb60e01b81529293506001600160a01b039091169163a9059cbb91610cd891859190600401613dc2565b602060405180830381600087803b158015610cf257600080fd5b505af1158015610d06573d6000803e3d6000fd5b505050506040513d601f19601f82011682018060405250610d2a919081019061309f565b50835460ff19166002178455600584015460405186917f856af197d834c3fc3bb132a02f7e7e760a2ecd78ecc62fc02c35de22c99c527891610d6d918591613dc2565b60405180910390a250610dce565b604051610d8790613d3d565b6040518091039020818051906020012014610dce5760006001840181905560405185917f0cf75fb1fa7599302df2e67726e4ec0583b898ab8df6acd5cbf5c96f3cfa4eee91a25b505050505050565b6000818152600860205260408120546001600160a01b0316806108fb5760405162461bcd60e51b815260040161063e90613f3b565b610e153382611c6f565b50565b610e206125d8565b50600090815260156020908152604091829020825180840190935280548352600101549082015290565b60145490565b60006001600160a01b038216610e785760405162461bcd60e51b815260040161063e90613f2b565b6001600160a01b0382166000908152600a602052604090206108fb90611df9565b6003546001600160a01b031681565b6013546001600160a01b03163314610ebf57600080fd5b6000610ecd828401846130bd565b9050610dce8682611c6f565b60118054604080516020601f600260001961010060018816150201909516949094049384018190048102820181019092528281526060939092909183018282801561060c5780601f106105e15761010080835404028352916020019161060c565b6001600160a01b038216331415610f635760405162461bcd60e51b815260040161063e90613ecb565b336000818152600b602090815260408083206001600160a01b038716808552925291829020805460ff191685151517905590519091907f17307eab39ab6107e8899845ad3d59bd9653f200f220920489ca2b5937696c3190610fc6908590613ddd565b60405180910390a35050565b6000546001600160a01b031681565b610fec848484610750565b610ff884848484611dfd565b6110145760405162461bcd60e51b815260040161063e90613e8b565b50505050565b6060611025826116db565b6110415760405162461bcd60e51b815260040161063e90613f7b565b60008281526012602090815260409182902080548351601f6002600019610100600186161502019093169290920491820184900484028101840190945280845290918301828280156110d45780601f106110a9576101008083540402835291602001916110d4565b820191906000526020600020905b8154815290600101906020018083116110b757829003601f168201915b50505050509050919050565b6004546001600160a01b031681565b60065481565b6001600160a01b039182166000908152600b6020908152604080832093909416825291909152205460ff1690565b8360006014828154811061113357fe5b906000526020600020906007020190508060060154421161115357600080fd5b60006014878154811061116257fe5b906000526020600020906007020190506000801b81600101541461118557600080fd5b6002546001600160a01b031615806112255750600254865160015460408051631a2a7bc760e21b81529051611225946001600160a01b03908116949316916368a9ef1c916004808301926020929190829003018186803b1580156111e857600080fd5b505afa1580156111fc573d6000803e3d6000fd5b505050506040513d601f19601f8201168201806040525061122091908101906130db565b611ec2565b6112415760405162461bcd60e51b815260040161063e90613edb565b6003546001600160a01b031615806112a45750600354855160015460408051631a2a7bc760e21b815290516112a4946001600160a01b03908116949316916368a9ef1c916004808301926020929190829003018186803b1580156111e857600080fd5b6112c05760405162461bcd60e51b815260040161063e90613f9b565b6004546001600160a01b03161580611323575060048054855160015460408051631a2a7bc760e21b81529051611323956001600160a01b0395861695909316926368a9ef1c92808201926020929091829003018186803b1580156111e857600080fd5b61133f5760405162461bcd60e51b815260040161063e90613fbb565b6113476125f2565b86516001600160a01b039081168252602080890151818401528751821660408085019190915288820151606085015287519092166080808501919091528782015160a08501523060c08501819052600160e0860152600061010086018190529189015161012086015261014085018290526101608501829052610180850152825180830184529081526101a084015290516113e69142918b9101613d0b565b60408051601f1981840301815291815281516020909201919091206101c0830152600154905163732e498d60e01b81526001600160a01b039091169063732e498d90611436908490600401614036565b602060405180830381600087803b15801561145057600080fd5b505af1158015611464573d6000803e3d6000fd5b505050506040513d601f19601f82011682018060405250611488919081019061309f565b61149157600080fd5b60006114b68660200151610a9e89602001518b6020015161179c90919063ffffffff16565b90506114c181611f15565b60058301546114d6908263ffffffff61202416565b6005840155600154604051630558653560e21b81526000916001600160a01b03169063156194d490611512908c908c908c908990600401613fdb565b602060405180830381600087803b15801561152c57600080fd5b505af1158015611540573d6000803e3d6000fd5b505050506040513d601f19601f8201168201806040525061156491908101906130db565b9050600081600060405160200161157c929190613d0b565b60408051601f19818403018152828252805160209182012060018901819055600081815260169092529190208d905591508b907f295dd5bad68b12fb7cf6bab497a9e8f1cc85d8078ba61fd4afa063566af68f11906115dc908490613deb565b60405180910390a25050505050505050505050565b60055481565b6013546001600160a01b031681565b60008060008084516041146116215760009350505050610556565b50505060208201516040830151606084015160001a601b81101561164357601b015b8060ff16601b1415801561165b57508060ff16601c14155b1561166c5760009350505050610556565b6001868285856040516000815260200160405260405161168f9493929190613e27565b6020604051602081039080840390855afa1580156116b1573d6000803e3d6000fd5b505050602060405103516001600160a01b0316876001600160a01b03161493505050509392505050565b6000908152600860205260409020546001600160a01b0316151590565b6000611703826116db565b61171f5760405162461bcd60e51b815260040161063e90613efb565b600061172a83610dd6565b9050806001600160a01b0316846001600160a01b031614806117655750836001600160a01b031661175a84610617565b6001600160a01b0316145b80611775575061177581856110f5565b949350505050565b61178883838361204c565b6117928382612152565b6107818282612247565b6000828201838110156105565760405162461bcd60e51b815260040161063e90613eab565b600060606117cd6124c0565b60005460405163adccf0d560e01b81526001600160a01b039091169063adccf0d5906117fd908790600401613deb565b60006040518083038186803b15801561181557600080fd5b505afa158015611829573d6000803e3d6000fd5b505050506040513d6000823e601f3d908101601f1916820160405261185191908101906131b0565b905061185b612532565b6001546020830151604051635ba430d960e11b81526001600160a01b039092169163b74861b29161188e91600401613deb565b60006040518083038186803b1580156118a657600080fd5b505afa1580156118ba573d6000803e3d6000fd5b505050506040513d6000823e601f3d908101601f191682016040526118e2919081019061317c565b90506003825160048111156118f357fe5b1461193257600060405180604001604052806014815260200173726573756c742d6e6f742d617661696c61626c6560601b815250935093505050611c06565b8161018001516040516119459190613d31565b60405180910390208261016001511461197e5760006040518060600160405280602181526020016141a260219139935093505050611c06565b6002546001600160a01b0316158015906119e6575060025481515160015460408051631a2a7bc760e21b815290516119e4946001600160a01b03908116949316916368a9ef1c916004808301926020929190829003018186803b1580156111e857600080fd5b155b15611a215760006040518060400160405280601081526020016f0756e617574686f72697a65642d6170760841b815250935093505050611c06565b6003546001600160a01b031615801590611a8957506003546020808301515160015460408051631a2a7bc760e21b81529051611a87956001600160a01b03908116959316926368a9ef1c9260048082019391829003018186803b1580156111e857600080fd5b155b15611ac8576000604051806040016040528060148152602001731d5b985d5d1a1bdc9a5e99590b59185d185cd95d60621b815250935093505050611c06565b6004546001600160a01b031615801590611b35575060048054604080840151516001548251631a2a7bc760e21b81529251611b33956001600160a01b0395861695939492909316926368a9ef1c92808201926020929091829003018186803b1580156111e857600080fd5b155b15611b77576000604051806040016040528060178152602001761d5b985d5d1a1bdc9a5e99590b5ddbdc9ad95c9c1bdbdb604a1b815250935093505050611c06565b60a081015160055490191615611bb85760006040518060400160405280600b81526020016a696e76616c69642d74616760a81b815250935093505050611c06565b80606001516006541115611bf95760006040518060400160405280600d81526020016c1a5b9d985b1a590b5d1c9d5cdd609a1b815250935093505050611c06565b5061018001516001925090505b915091565b600081611c2a5760405162461bcd60e51b815260040161063e90613f1b565b818381611c3357fe5b069392505050565b60008282604051602001611c50929190613e19565b60408051601f1981840301815291905280516020909101209392505050565b80600060148281548110611c7f57fe5b906000526020600020906007020190508060060154421115611ca057600080fd5b8060040154816003015410611cb457600080fd5b600060148481548110611cc357fe5b6000918252602090912060135460079092020160028101546040516323b872dd60e01b81529193506001600160a01b03909216916323b872dd91611d0e918991309190600401613d9a565b602060405180830381600087803b158015611d2857600080fd5b505af1158015611d3c573d6000803e3d6000fd5b505050506040513d601f19601f82011682018060405250611d60919081019061309f565b611d6957600080fd5b6000611d7a85836003015488612285565b9050611d978260020154836005015461179c90919063ffffffff16565b60058301556003820154611db290600163ffffffff61179c16565b600383015560405185907f0c2a15b70d6924d240df268954ec5451e92d2f62710f46311486de3c1e82e9b390611de9908490613deb565b60405180910390a2505050505050565b5490565b6000611e11846001600160a01b03166122be565b611e1d57506001611775565b604051630a85bd0160e11b81526000906001600160a01b0386169063150b7a0290611e529033908a9089908990600401613d56565b602060405180830381600087803b158015611e6c57600080fd5b505af1158015611e80573d6000803e3d6000fd5b505050506040513d601f19601f82011682018060405250611ea4919081019061315e565b6001600160e01b031916630a85bd0160e11b14915050949350505050565b6000826001600160a01b0316846001600160a01b031614806105535750836001600160a01b031663d202158d611ef7856122c4565b846040518363ffffffff1660e01b8152600401610503929190613e19565b60135460015460405163095ea7b360e01b81526001600160a01b039283169263095ea7b392611f4b929116908590600401613dc2565b602060405180830381600087803b158015611f6557600080fd5b505af1158015611f79573d6000803e3d6000fd5b505050506040513d601f19601f82011682018060405250611f9d919081019061309f565b5060015460405163b6b55f2560e01b81526001600160a01b039091169063b6b55f2590611fce908490600401613deb565b602060405180830381600087803b158015611fe857600080fd5b505af1158015611ffc573d6000803e3d6000fd5b505050506040513d601f19601f82011682018060405250612020919081019061309f565b5050565b6000828211156120465760405162461bcd60e51b815260040161063e90613eeb565b50900390565b826001600160a01b031661205f82610dd6565b6001600160a01b0316146120855760405162461bcd60e51b815260040161063e90613f6b565b6001600160a01b0382166120ab5760405162461bcd60e51b815260040161063e90613ebb565b6120b4816122d0565b6001600160a01b0383166000908152600a602052604090206120d59061230b565b6001600160a01b0382166000908152600a602052604090206120f690612322565b60008181526008602052604080822080546001600160a01b0319166001600160a01b0386811691821790925591518493918716917fddf252ad1be2c89b69c2b068fc378daa952ba7f163c4a11628f55a4df523b3ef91a4505050565b6001600160a01b0382166000908152600c602052604081205461217c90600163ffffffff61202416565b6000838152600d6020526040902054909150808214612217576001600160a01b0384166000908152600c602052604081208054849081106121b957fe5b9060005260206000200154905080600c6000876001600160a01b03166001600160a01b0316815260200190815260200160002083815481106121f757fe5b6000918252602080832090910192909255918252600d9052604090208190555b6001600160a01b0384166000908152600c602052604090208054906122409060001983016126ab565b5050505050565b6001600160a01b039091166000908152600c602081815260408084208054868652600d84529185208290559282526001810183559183529091200155565b6000806122928585611c3b565b905061229e838261232b565b600081815260156020526040902085815560010184905590509392505050565b3b151590565b6001600160a01b031690565b6000818152600960205260409020546001600160a01b031615610e1557600090815260096020526040902080546001600160a01b0319169055565b805461231e90600163ffffffff61202416565b9055565b80546001019055565b6123358282612348565b61233f8282612247565b6120208161240f565b6001600160a01b03821661236e5760405162461bcd60e51b815260040161063e90613f4b565b612377816116db565b156123945760405162461bcd60e51b815260040161063e90613e9b565b600081815260086020908152604080832080546001600160a01b0319166001600160a01b0387169081179091558352600a90915290206123d390612322565b60405181906001600160a01b038416906000907fddf252ad1be2c89b69c2b068fc378daa952ba7f163c4a11628f55a4df523b3ef908290a45050565b600e80546000838152600f60205260408120829055600182018355919091527fbb7b4a454dc3493923482f07822329ed19e8244eff582cc204f8554c3620c3fd0155565b6040805160e0810190915280600081526020016000801916815260200160008152602001600081526020016000815260200160008152602001600081525090565b8154818355818111156107815760070281600702836000526020600020918201910161078191906126cf565b604080516101a0810190915280600081526020016000801916815260200160008152602001600081526020016000815260200160008152602001600081526020016000801916815260200160008152602001600081526020016060815260200160008019168152602001606081525090565b604051806102a0016040528061254661271b565b815260200161255361271b565b815260200161256061271b565b815260200160008152602001600081526020016000801916815260200160006001600160a01b0316815260200160006001600160a01b0316815260200160006001600160a01b031681526020016060815260200160008152602001600081526020016000815260200160008152602001600081525090565b604051806040016040528060008152602001600081525090565b60405180610200016040528060006001600160a01b031681526020016000815260200160006001600160a01b031681526020016000815260200160006001600160a01b031681526020016000815260200160006001600160a01b031681526020016000815260200160008019168152602001600081526020016000815260200160006001600160a01b0316815260200160006001600160a01b031681526020016060815260200160008019168152602001606081525090565b8154818355818111156107815760008381526020902061078191810190830161273b565b61061491905b8082111561271757805460ff191681556000600182018190556002820181905560038201819055600482018190556005820181905560068201556007016126d5565b5090565b604080516060810182526000808252602082018190529181019190915290565b61061491905b808211156127175760008155600101612741565b80356108fb81614165565b80516108fb81614165565b600082601f83011261277c57600080fd5b815161278f61278a8261407b565b614055565b915081818352602084019350602081019050838560208402820111156127b457600080fd5b60005b838110156127e057816127ca8882612760565b84525060209283019291909101906001016127b7565b5050505092915050565b80356108fb81614179565b80516108fb81614179565b80356108fb81614182565b80516108fb81614182565b80356108fb8161418b565b80516108fb8161418b565b60008083601f84011261283e57600080fd5b5081356001600160401b0381111561285557600080fd5b60208301915083600182028301111561286d57600080fd5b9250929050565b600082601f83011261288557600080fd5b813561289361278a8261409b565b915080825260208301602083018583830111156128af57600080fd5b6128ba838284614119565b50505092915050565b600082601f8301126128d457600080fd5b81516128e261278a8261409b565b915080825260208301602083018583830111156128fe57600080fd5b6128ba838284614125565b80516108fb81614194565b6000610120828403121561292757600080fd5b612932610120614055565b905060006129408484612755565b825250602061295184848301612800565b602083015250604061296584828501612800565b604083015250606061297984828501612800565b606083015250608061298d84828501612755565b60808301525060a06129a184828501612755565b60a08301525060c06129b584828501612755565b60c08301525060e06129c984828501612800565b60e0830152506101008201356001600160401b038111156129e957600080fd5b6129f584828501612874565b6101008301525092915050565b60006102a08284031215612a1557600080fd5b612a206101e0614055565b90506000612a2e8484612b79565b8252506060612a3f84848301612b79565b60208301525060c0612a5384828501612b79565b604083015250610120612a688482850161280b565b606083015250610140612a7d8482850161280b565b608083015250610160612a928482850161280b565b60a083015250610180612aa784828501612760565b60c0830152506101a0612abc84828501612760565b60e0830152506101c0612ad184828501612760565b610100830152506101e08201516001600160401b03811115612af257600080fd5b612afe848285016128c3565b61012083015250610200612b148482850161280b565b61014083015250610220612b2a8482850161280b565b61016083015250610240612b408482850161280b565b61018083015250610260612b568482850161280b565b6101a083015250610280612b6c8482850161280b565b6101c08301525092915050565b600060608284031215612b8b57600080fd5b612b956060614055565b90506000612ba38484612760565b8252506020612bb484848301612760565b6020830152506040612bc88482850161280b565b60408301525092915050565b60006101a08284031215612be757600080fd5b612bf26101a0614055565b90506000612c008484612909565b8252506020612c118484830161280b565b6020830152506040612c258482850161280b565b6040830152506060612c398482850161280b565b6060830152506080612c4d8482850161280b565b60808301525060a0612c618482850161280b565b60a08301525060c0612c758482850161280b565b60c08301525060e0612c898482850161280b565b60e083015250610100612c9e8482850161280b565b61010083015250610120612cb48482850161280b565b610120830152506101408201516001600160401b03811115612cd557600080fd5b612ce18482850161276b565b61014083015250610160612cf78482850161280b565b610160830152506101808201516001600160401b03811115612d1857600080fd5b612d24848285016128c3565b6101808301525092915050565b60006101608284031215612d4457600080fd5b612d4f610160614055565b90506000612d5d8484612755565b8252506020612d6e84848301612800565b6020830152506040612d8284828501612800565b6040830152506060612d9684828501612800565b6060830152506080612daa84828501612800565b60808301525060a0612dbe84828501612800565b60a08301525060c0612dd284828501612755565b60c08301525060e0612de684828501612755565b60e083015250610100612dfb84828501612755565b61010083015250610120612e1184828501612800565b610120830152506101408201356001600160401b03811115612e3257600080fd5b612e3e84828501612874565b6101408301525092915050565b600060208284031215612e5d57600080fd5b60006117758484612755565b60008060408385031215612e7c57600080fd5b6000612e888585612755565b9250506020612e9985828601612755565b9150509250929050565b600080600060608486031215612eb857600080fd5b6000612ec48686612755565b9350506020612ed586828701612755565b9250506040612ee686828701612800565b9150509250925092565b60008060008060808587031215612f0657600080fd5b6000612f128787612755565b9450506020612f2387828801612755565b9350506040612f3487828801612800565b92505060608501356001600160401b03811115612f5057600080fd5b612f5c87828801612874565b91505092959194509250565b60008060408385031215612f7b57600080fd5b6000612f878585612755565b9250506020612e99858286016127ea565b600080600060608486031215612fad57600080fd5b6000612fb98686612755565b9350506020612fca86828701612800565b92505060408401356001600160401b03811115612fe657600080fd5b612ee686828701612874565b6000806040838503121561300557600080fd5b60006130118585612755565b9250506020612e9985828601612800565b60008060008060006080868803121561303a57600080fd5b60006130468888612755565b955050602061305788828901612800565b945050604061306888828901612755565b93505060608601356001600160401b0381111561308457600080fd5b6130908882890161282c565b92509250509295509295909350565b6000602082840312156130b157600080fd5b600061177584846127f5565b6000602082840312156130cf57600080fd5b60006117758484612800565b6000602082840312156130ed57600080fd5b6000611775848461280b565b6000806040838503121561310c57600080fd5b60006131188585612800565b92505060208301356001600160401b0381111561313457600080fd5b612e9985828601612874565b60006020828403121561315257600080fd5b60006117758484612816565b60006020828403121561317057600080fd5b60006117758484612821565b60006020828403121561318e57600080fd5b81516001600160401b038111156131a457600080fd5b61177584828501612a02565b6000602082840312156131c257600080fd5b81516001600160401b038111156131d857600080fd5b61177584828501612bd4565b600080600080608085870312156131fa57600080fd5b60006132068787612800565b94505060208501356001600160401b0381111561322257600080fd5b61322e87828801612914565b93505060408501356001600160401b0381111561324a57600080fd5b61325687828801612914565b92505060608501356001600160401b0381111561327257600080fd5b612f5c87828801612d31565b60008060006060848603121561329357600080fd5b600061329f8686612800565b9350506020612ed586828701612800565b6132b9816140fc565b82525050565b6132b9816140cf565b6132b9816140da565b6132b981610614565b6132b96132e682610614565b610614565b60006132f6826140c2565b61330081856140c6565b9350613310818560208601614125565b61331981614151565b9093019392505050565b600061332e826140c2565b613338818561057b565b9350613348818560208601614125565b9290920192915050565b6132b981614103565b6132b98161410e565b6000613371602b836140c6565b7f455243373231456e756d657261626c653a206f776e657220696e646578206f7581526a74206f6620626f756e647360a81b602082015260400192915050565b60006133be6032836140c6565b7f4552433732313a207472616e7366657220746f206e6f6e20455243373231526581527131b2b4bb32b91034b6b83632b6b2b73a32b960711b602082015260400192915050565b6000613412601c836140c6565b7f4552433732313a20746f6b656e20616c7265616479206d696e74656400000000815260200192915050565b600061344b601b836140c6565b7f536166654d6174683a206164646974696f6e206f766572666c6f770000000000815260200192915050565b60006134846024836140c6565b7f4552433732313a207472616e7366657220746f20746865207a65726f206164648152637265737360e01b602082015260400192915050565b60006134ca6019836140c6565b7f4552433732313a20617070726f766520746f2063616c6c657200000000000000815260200192915050565b60006135036010836140c6565b6f0756e617574686f72697a65642d6170760841b815260200192915050565b600061352f601e836140c6565b7f536166654d6174683a207375627472616374696f6e206f766572666c6f770000815260200192915050565b6000613568602c836140c6565b7f4552433732313a206f70657261746f7220717565727920666f72206e6f6e657881526b34b9ba32b73a103a37b5b2b760a11b602082015260400192915050565b60006135b66038836140c6565b7f4552433732313a20617070726f76652063616c6c6572206973206e6f74206f7781527f6e6572206e6f7220617070726f76656420666f7220616c6c0000000000000000602082015260400192915050565b60006136156018836140c6565b7f536166654d6174683a206d6f64756c6f206279207a65726f0000000000000000815260200192915050565b600061364e602a836140c6565b7f4552433732313a2062616c616e636520717565727920666f7220746865207a65815269726f206164647265737360b01b602082015260400192915050565b600061369a6029836140c6565b7f4552433732313a206f776e657220717565727920666f72206e6f6e657869737481526832b73a103a37b5b2b760b91b602082015260400192915050565b60006136e56020836140c6565b7f4552433732313a206d696e7420746f20746865207a65726f2061646472657373815260200192915050565b600061371e602c836140c6565b7f4552433732313a20617070726f76656420717565727920666f72206e6f6e657881526b34b9ba32b73a103a37b5b2b760a11b602082015260400192915050565b600061376c6029836140c6565b7f4552433732313a207472616e73666572206f6620746f6b656e2074686174206981526839903737ba1037bbb760b91b602082015260400192915050565b60006137b7602f836140c6565b7f4552433732314d657461646174613a2055524920717565727920666f72206e6f81526e3732bc34b9ba32b73a103a37b5b2b760891b602082015260400192915050565b60006138086021836140c6565b7f4552433732313a20617070726f76616c20746f2063757272656e74206f776e658152603960f91b602082015260400192915050565b600061384b6014836140c6565b731d5b985d5d1a1bdc9a5e99590b59185d185cd95d60621b815260200192915050565b600061387b6031836140c6565b7f4552433732313a207472616e736665722063616c6c6572206973206e6f74206f8152701ddb995c881b9bdc88185c1c1c9bdd9959607a1b602082015260400192915050565b60006138ce6017836140c6565b761d5b985d5d1a1bdc9a5e99590b5ddbdc9ad95c9c1bdbdb604a1b815260200192915050565b6000613901602c836140c6565b7f455243373231456e756d657261626c653a20676c6f62616c20696e646578206f81526b7574206f6620626f756e647360a01b602082015260400192915050565b600061394f60148361057b565b73726573756c742d6e6f742d617661696c61626c6560601b815260140192915050565b805160009061012084019061398785826132bf565b50602083015161399a60208601826132d1565b5060408301516139ad60408601826132d1565b5060608301516139c060608601826132d1565b5060808301516139d360808601826132bf565b5060a08301516139e660a08601826132bf565b5060c08301516139f960c08601826132bf565b5060e0830151613a0c60e08601826132d1565b50610100830151848203610100860152613a2682826132eb565b95945050505050565b805160e0830190613a40848261335b565b506020820151613a5360208501826132d1565b506040820151613a6660408501826132d1565b506060820151613a7960608501826132d1565b506080820151613a8c60808501826132d1565b5060a0820151613a9f60a08501826132d1565b5060c082015161101460c08501826132d1565b8051600090610200840190613ac785826132bf565b506020830151613ada60208601826132d1565b506040830151613aed60408601826132bf565b506060830151613b0060608601826132d1565b506080830151613b1360808601826132bf565b5060a0830151613b2660a08601826132d1565b5060c0830151613b3960c08601826132bf565b5060e0830151613b4c60e08601826132d1565b50610100830151613b616101008601826132d1565b50610120830151613b766101208601826132d1565b50610140830151613b8b6101408601826132d1565b50610160830151613ba06101608601826132bf565b50610180830151613bb56101808601826132bf565b506101a08301518482036101a0860152613bcf82826132eb565b9150506101c0830151613be66101c08601826132d1565b506101e08301518482036101e0860152613a2682826132eb565b80516040830190613c1184826132d1565b50602082015161101460208501826132d1565b8051600090610160840190613c3985826132bf565b506020830151613c4c60208601826132d1565b506040830151613c5f60408601826132d1565b506060830151613c7260608601826132d1565b506080830151613c8560808601826132d1565b5060a0830151613c9860a08601826132d1565b5060c0830151613cab60c08601826132bf565b5060e0830151613cbe60e08601826132bf565b50610100830151613cd36101008601826132bf565b50610120830151613ce86101208601826132d1565b50610140830151848203610140860152613a2682826132eb565b6132b9816140f6565b6000613d1782856132da565b602082019150613d2782846132da565b5060200192915050565b60006105568284613323565b60006108fb82613942565b602081016108fb82846132bf565b60808101613d6482876132b0565b613d7160208301866132bf565b613d7e60408301856132d1565b8181036060830152613d9081846132eb565b9695505050505050565b60608101613da882866132bf565b613db560208301856132bf565b61177560408301846132d1565b60408101613dd082856132bf565b61055660208301846132d1565b602081016108fb82846132c8565b602081016108fb82846132d1565b60408101613e0782856132d1565b818103602083015261055381846132eb565b60408101613dd082856132d1565b60808101613e3582876132d1565b613e426020830186613d02565b613e4f60408301856132d1565b613a2660608301846132d1565b602081016108fb8284613352565b6020808252810161055681846132eb565b602080825281016108fb81613364565b602080825281016108fb816133b1565b602080825281016108fb81613405565b602080825281016108fb8161343e565b602080825281016108fb81613477565b602080825281016108fb816134bd565b602080825281016108fb816134f6565b602080825281016108fb81613522565b602080825281016108fb8161355b565b602080825281016108fb816135a9565b602080825281016108fb81613608565b602080825281016108fb81613641565b602080825281016108fb8161368d565b602080825281016108fb816136d8565b602080825281016108fb81613711565b602080825281016108fb8161375f565b602080825281016108fb816137aa565b602080825281016108fb816137fb565b602080825281016108fb8161383e565b602080825281016108fb8161386e565b602080825281016108fb816138c1565b602080825281016108fb816138f4565b60808082528101613fec8187613972565b905081810360208301526140008186613972565b905081810360408301526140148185613c24565b90508181036060830152613d908184613ab2565b60e081016108fb8284613a2f565b602080825281016105568184613ab2565b604081016108fb8284613c00565b6040518181016001600160401b038111828210171561407357600080fd5b604052919050565b60006001600160401b0382111561409157600080fd5b5060209081020190565b60006001600160401b038211156140b157600080fd5b506020601f91909101601f19160190565b5190565b90815260200190565b60006108fb826122c4565b151590565b6001600160e01b03191690565b8061057b8161415b565b60ff1690565b60006108fb825b60006108fb826140cf565b60006108fb826140ec565b82818337506000910152565b60005b83811015614140578181015183820152602001614128565b838111156110145750506000910152565b601f01601f191690565b60038110610e1557fe5b61416e816140cf565b8114610e1557600080fd5b61416e816140da565b61416e81610614565b61416e816140df565b60058110610e1557600080fdfe726573756c742d6e6f742d76616c6964617465642d62792d636f6e73656e737573a365627a7a72305820b7505b588c69ee42ad93b3000f15bdd3c0bc8f0f6e24667103ea5591582ae2e26c6578706572696d656e74616cf564736f6c634300050a0040",
  "source": "pragma solidity ^0.5.10;\npragma experimental ABIEncoderV2;\n\nimport \"iexec-doracle-base/contracts/IexecDoracle.sol\";\nimport \"openzeppelin-solidity/contracts/token/ERC20/IERC20.sol\";\nimport \"openzeppelin-solidity/contracts/token/ERC721/ERC721Full.sol\";\n\n\ncontract Lottery is IexecDoracle, ERC721Full\n{\n\tusing SafeMath for uint256;\n\n\tbytes32 public constant TAG    = 0x0000000000000000000000000000000000000000000000000000000000000000; // NO TEE\n\tuint256 public constant TRUST  = 0; // No replication\n\tstring  public constant PARAMS = \"\";\n\n\tIERC20 public token;\n\n\tenum LotteryStatusEnum\n\t{\n\t\tNULL,\n\t\tACTIVE,\n\t\tFINISHED\n\t}\n\tstruct LotteryMetadata\n\t{\n\t\tLotteryStatusEnum status;\n\t\tbytes32 oracleCall;\n\t\tuint256 ticketPrice;\n\t\tuint256 ticketCount;\n\t\tuint256 ticketMaxCount;\n\t\tuint256 potValue;\n\t\tuint256 crowdsaleDeadline;\n\t}\n\n\tstruct TicketMetadata\n\t{\n\t\tuint256 lotteryID;\n\t\tuint256 ticketNumber;\n\t}\n\n\tLotteryMetadata[]                  private m_lotteryMetadata;\n\tmapping(uint256 => TicketMetadata) private m_ticketMetadata;\n\tmapping(bytes32 => uint256       ) private m_oracleCallToLottery;\n\n\tevent NewLottery    (uint256 indexed lotteryid);\n\tevent NewParticipant(uint256 indexed lotteryid, uint256 ticketid);\n\tevent NewRoll       (uint256 indexed lotteryid, bytes32 taskid);\n\tevent Reward        (uint256 indexed lotteryid, address winner, uint256 value);\n\tevent Faillure      (uint256 indexed lotteryid);\n\tevent Claim         (uint256 indexed lotteryid);\n\n\tmodifier crowSaleActive(uint256 _lotteryID)\n\t{\n\t\tLotteryMetadata storage details = m_lotteryMetadata[_lotteryID];\n\t\trequire(now <= details.crowdsaleDeadline);\n\t\trequire(details.ticketCount < details.ticketMaxCount);\n\t\t_;\n\t}\n\tmodifier crowSaleFinished(uint256 _lotteryID)\n\t{\n\t\tLotteryMetadata storage details = m_lotteryMetadata[_lotteryID];\n\t\trequire(now > details.crowdsaleDeadline);\n\t\t_;\n\t}\n\n\t/***************************************************************************\n\t *                               Constructor                               *\n\t ***************************************************************************/\n\tconstructor(\n\t\taddress _iexecHubAddr,\n\t\taddress _app,\n\t\taddress _dataset,\n\t\taddress _workerpool)\n\tpublic IexecDoracle(_iexecHubAddr) ERC721Full(\"Lottery Tickets\", \"LT\")\n\t{\n\t\t_iexecDoracleUpdateSettings(\n\t\t\t_app,\n\t\t\t_dataset,\n\t\t\t_workerpool,\n\t\t\tTAG,\n\t\t\tTRUST\n\t\t);\n\t\ttoken = iexecClerk.token();\n\t}\n\n\tfunction countLottery       (                  ) external view returns (uint256               ) { return m_lotteryMetadata.length;          }\n\tfunction viewLottery        (uint256 lotteryID ) external view returns (LotteryMetadata memory) { return m_lotteryMetadata    [lotteryID];  }\n\tfunction viewTicket         (uint256 ticketID  ) external view returns (TicketMetadata  memory) { return m_ticketMetadata     [ticketID];   }\n\tfunction oracleCallToLottery(bytes32 oracleCall) external view returns (uint256               ) { return m_oracleCallToLottery[oracleCall]; }\n\n\t/***************************************************************************\n\t *                          LOTTERY - Create game                          *\n\t ***************************************************************************/\n\tfunction createLottery(\n\t\tuint256 _ticketPrice,\n\t\tuint256 _ticketMaxCount,\n\t\tuint256 _duration)\n\tpublic\n\t{\n\t\tuint256 lotteryID = m_lotteryMetadata.length++;\n\n\t\tLotteryMetadata storage details = m_lotteryMetadata[lotteryID];\n\t\tdetails.status            = LotteryStatusEnum.ACTIVE;\n\t\tdetails.ticketPrice       = _ticketPrice;\n\t\tdetails.crowdsaleDeadline = now + _duration;\n\t\tdetails.ticketMaxCount    = _ticketMaxCount;\n\n\t\temit NewLottery(lotteryID);\n\t}\n\n\t/***************************************************************************\n\t *                          LOTTERY - Buy ticket                           *\n\t ***************************************************************************/\n\tfunction receiveApproval(address _sender, uint256, address, bytes calldata _ref)\n\t\texternal\n\t{\n\t\trequire(msg.sender == address(token));\n\t\t(uint256 lotteryID) = abi.decode(_ref, (uint256));\n\t\t_buyTicket(_sender, lotteryID);\n\t}\n\n\tfunction buyTicket(uint256 lotteryID)\n\t\texternal\n\t{\n\t\t_buyTicket(msg.sender, lotteryID);\n\t}\n\n\tfunction _buyTicket(address _buyer, uint256 _lotteryID)\n\tinternal crowSaleActive(_lotteryID)\n\t{\n\t\t// Get lottery details\n\t\tLotteryMetadata storage details = m_lotteryMetadata[_lotteryID];\n\n\t\t// Pay in tokens\n\t\trequire(token.transferFrom(_buyer, address(this), details.ticketPrice));\n\n\t\t// Emit ticket\n\t\tuint256 ticketID = mintTicket(_lotteryID, details.ticketCount, _buyer);\n\n\t\t// Details update\n\t\tdetails.potValue    = details.potValue.add(details.ticketPrice);\n\t\tdetails.ticketCount = details.ticketCount.add(1);\n\n\t\temit NewParticipant(_lotteryID, ticketID);\n\t}\n\n\t/***************************************************************************\n\t *                             LOTTERY - Roll                              *\n\t ***************************************************************************/\n\tfunction roll(\n\t\tuint256                                  _lotteryID,\n\t\tIexecODBLibOrders.AppOrder        memory _apporder,\n\t\tIexecODBLibOrders.DatasetOrder    memory _datasetorder,\n\t\tIexecODBLibOrders.WorkerpoolOrder memory _workerpoolorder)\n\tpublic crowSaleFinished(_lotteryID)\n\t{\n\t\t// Get lottery details\n\t\tLotteryMetadata storage details = m_lotteryMetadata[_lotteryID];\n\n\t\t// Check lottery status\n\t\trequire(details.oracleCall == bytes32(0));\n\n\t\t// Check whitelist\n\t\trequire(m_authorizedApp        == address(0) || checkIdentity(m_authorizedApp,        _apporder.app,               iexecClerk.GROUPMEMBER_PURPOSE()), \"unauthorized-app\");\n\t\trequire(m_authorizedDataset    == address(0) || checkIdentity(m_authorizedDataset,    _datasetorder.dataset,       iexecClerk.GROUPMEMBER_PURPOSE()), \"unauthorized-dataset\");\n\t\trequire(m_authorizedWorkerpool == address(0) || checkIdentity(m_authorizedWorkerpool, _workerpoolorder.workerpool, iexecClerk.GROUPMEMBER_PURPOSE()), \"unauthorized-workerpool\");\n\n\t\t// Create order\n\t\tIexecODBLibOrders.RequestOrder memory requestorder;\n\t\trequestorder.app                = _apporder.app;                                //address\n\t\trequestorder.appmaxprice        = _apporder.appprice;                           //uint256\n\t\trequestorder.dataset            = _datasetorder.dataset;                        //address\n\t\trequestorder.datasetmaxprice    = _datasetorder.datasetprice;                   //uint256\n\t\trequestorder.workerpool         = _workerpoolorder.workerpool;                  //address\n\t\trequestorder.workerpoolmaxprice = _workerpoolorder.workerpoolprice;             //uint256\n\t\trequestorder.requester          = address(this);                                //address\n\t\trequestorder.volume             = 1;                                            //uint256\n\t\trequestorder.tag                = TAG;                                          //bytes32\n\t\trequestorder.category           = _workerpoolorder.category;                    //uint256\n\t\trequestorder.trust              = TRUST;                                        //uint256\n\t\trequestorder.beneficiary        = address(0);                                   //address\n\t\trequestorder.callback           = address(this);                                //address\n\t\trequestorder.params             = PARAMS;                                       //string\n\t\trequestorder.salt               = keccak256(abi.encodePacked(now, _lotteryID)); //bytes32\n\n\t\t// Sign order\n\t\trequire(iexecClerk.signRequestOrder(requestorder));\n\n\t\t// Deposit for deal & remove from pot\n\t\tuint256 dealprice = _apporder.appprice.add(_datasetorder.datasetprice).add(_workerpoolorder.workerpoolprice);\n\t\tiExecDeposit(dealprice);\n\t\tdetails.potValue = details.potValue.sub(dealprice);\n\n\t\t// Match and retreive details\n\t\tbytes32 dealid = iexecClerk.matchOrders(_apporder, _datasetorder, _workerpoolorder, requestorder);\n\t\tbytes32 taskid = keccak256(abi.encodePacked(dealid, uint256(0)));\n\n\t\t// Register\n\t\tdetails.oracleCall            = taskid;\n\t\tm_oracleCallToLottery[taskid] = _lotteryID;\n\n\t\temit NewRoll(_lotteryID, taskid);\n\t}\n\n\t/***************************************************************************\n\t *                            LOTTERY - Resolve                            *\n\t ***************************************************************************/\n\tfunction receiveResult(bytes32 _doracleCallId, bytes memory)\n\tpublic\n\t{\n\t\tuint256 lotteryID = m_oracleCallToLottery[_doracleCallId];\n\n\t\t// Get lottery details\n\t\tLotteryMetadata storage details = m_lotteryMetadata[lotteryID];\n\t\trequire(details.status == LotteryStatusEnum.ACTIVE);\n\n\t\t// Get result\n\t\t(bool success, bytes memory results) = _iexecDoracleGetResults(_doracleCallId);\n\n\t\tif (success)\n\t\t{\n\t\t\t// Identify winner\n\t\t\taddress winner = ownerOf(getTicketID(\n\t\t\t\tlotteryID,\n\t\t\t\tabi.decode(results, (uint256)).mod(details.ticketCount) // random value modulo ticketCount\n\t\t\t));\n\n\t\t\t// Reward\n\t\t\ttoken.transfer(winner, details.potValue);\n\n\t\t\t// Lock for good (prevent reentry)\n\t\t\tdetails.status = LotteryStatusEnum.FINISHED;\n\n\t\t\t// Notify\n\t\t\temit Reward(lotteryID, winner, details.potValue);\n\t\t}\n\t\telse if (keccak256(results) != keccak256(\"result-not-available\")) // any error (other than task not finished)\n\t\t{\n\t\t\t// Unlock\n\t\t\tdetails.oracleCall = bytes32(0);\n\n\t\t\t// Notify\n\t\t\temit Faillure(lotteryID);\n\t\t}\n\t}\n\n\t/***************************************************************************\n\t *                             LOTTERY - Claim                             *\n\t ***************************************************************************/\n\tfunction claim(uint256 _lotteryID)\n\tpublic\n\t{\n\t\t// Get lottery details\n\t\tLotteryMetadata storage details = m_lotteryMetadata[_lotteryID];\n\n\t\t// Get task & dealvalue\n\t\tIexecODBLibCore.Task memory task = iexecHub.viewTask(details.oracleCall);\n\t\tIexecODBLibCore.Deal memory deal = iexecClerk.viewDeal(task.dealid);\n\n\t\t// Check task status\n\t\trequire(task.status == IexecODBLibCore.TaskStatusEnum.FAILLED);\n\t\tuint256 dealprice = deal.app.price.add(deal.dataset.price).add(deal.workerpool.price);\n\n\t\t// Refund\n\t\tiexecClerk.withdraw(dealprice);\n\t\tdetails.potValue   = details.potValue.add(dealprice);\n\t\tdetails.oracleCall = bytes32(0);\n\n\t\temit Claim(_lotteryID);\n\t}\n\n\t/***************************************************************************\n\t *                                  Tools                                  *\n\t ***************************************************************************/\n\tfunction getTicketID(uint256 _lotteryID, uint256 _ticketIndex)\n\tinternal pure returns (uint256)\n\t{\n\t\treturn uint256(keccak256(abi.encode(_lotteryID, _ticketIndex)));\n\t}\n\n\tfunction mintTicket(uint256 _lotteryID, uint256 _ticketIndex, address _buyer)\n\tinternal returns (uint256)\n\t{\n\t\tuint256 ticketID = getTicketID(_lotteryID, _ticketIndex);\n\t\t_mint(_buyer, ticketID);\n\t\tm_ticketMetadata[ticketID].lotteryID    = _lotteryID;\n\t\tm_ticketMetadata[ticketID].ticketNumber = _ticketIndex;\n\t\treturn ticketID;\n\t}\n\n\tfunction iExecDeposit(uint256 value)\n\tinternal\n\t{\n\t\ttoken.approve(address(iexecClerk), value);\n\t\tiexecClerk.deposit(value);\n\t}\n}\n",
  "sourcePath": "/home/amxx/Work/iExec/code/iexec-doracle-examples/contracts/Lottery.sol",
  "compiler": {
    "name": "solc",
    "version": "0.5.10+commit.5a6ea5b1.Emscripten.clang"
  },
  "schemaVersion": "3.0.11",
  "updatedAt": "2019-07-25T13:07:58.750Z",
  "devdoc": {
    "methods": {
      "approve(address,uint256)": {
        "details": "Approves another address to transfer the given token ID The zero address indicates there is no approved address. There can only be one approved address per token at a given time. Can only be called by the token owner or an approved operator.",
        "params": {
          "to": "address to be approved for the given token ID",
          "tokenId": "uint256 ID of the token to be approved"
        }
      },
      "balanceOf(address)": {
        "details": "Gets the balance of the specified address.",
        "params": {
          "owner": "address to query the balance of"
        },
        "return": "uint256 representing the amount owned by the passed address"
      },
      "getApproved(uint256)": {
        "details": "Gets the approved address for a token ID, or zero if no address set Reverts if the token ID does not exist.",
        "params": {
          "tokenId": "uint256 ID of the token to query the approval of"
        },
        "return": "address currently approved for the given token ID"
      },
      "isApprovedForAll(address,address)": {
        "details": "Tells whether an operator is approved by a given owner.",
        "params": {
          "operator": "operator address which you want to query the approval of",
          "owner": "owner address which you want to query the approval of"
        },
        "return": "bool whether the given operator is approved by the given owner"
      },
      "name()": {
        "details": "Gets the token name.",
        "return": "string representing the token name"
      },
      "ownerOf(uint256)": {
        "details": "Gets the owner of the specified token ID.",
        "params": {
          "tokenId": "uint256 ID of the token to query the owner of"
        },
        "return": "address currently marked as the owner of the given token ID"
      },
      "safeTransferFrom(address,address,uint256)": {
        "details": "Safely transfers the ownership of a given token ID to another address If the target address is a contract, it must implement `onERC721Received`, which is called upon a safe transfer, and return the magic value `bytes4(keccak256(\"onERC721Received(address,address,uint256,bytes)\"))`; otherwise, the transfer is reverted. Requires the msg.sender to be the owner, approved, or operator",
        "params": {
          "from": "current owner of the token",
          "to": "address to receive the ownership of the given token ID",
          "tokenId": "uint256 ID of the token to be transferred"
        }
      },
      "safeTransferFrom(address,address,uint256,bytes)": {
        "details": "Safely transfers the ownership of a given token ID to another address If the target address is a contract, it must implement `onERC721Received`, which is called upon a safe transfer, and return the magic value `bytes4(keccak256(\"onERC721Received(address,address,uint256,bytes)\"))`; otherwise, the transfer is reverted. Requires the msg.sender to be the owner, approved, or operator",
        "params": {
          "_data": "bytes data to send along with a safe transfer check",
          "from": "current owner of the token",
          "to": "address to receive the ownership of the given token ID",
          "tokenId": "uint256 ID of the token to be transferred"
        }
      },
      "setApprovalForAll(address,bool)": {
        "details": "Sets or unsets the approval of a given operator An operator is allowed to transfer all tokens of the sender on their behalf.",
        "params": {
          "approved": "representing the status of the approval to be set",
          "to": "operator address to set the approval"
        }
      },
      "supportsInterface(bytes4)": {
        "details": "See `IERC165.supportsInterface`.     * Time complexity O(1), guaranteed to always use less than 30 000 gas."
      },
      "symbol()": {
        "details": "Gets the token symbol.",
        "return": "string representing the token symbol"
      },
      "tokenByIndex(uint256)": {
        "details": "Gets the token ID at a given index of all the tokens in this contract Reverts if the index is greater or equal to the total number of tokens.",
        "params": {
          "index": "uint256 representing the index to be accessed of the tokens list"
        },
        "return": "uint256 token ID at the given index of the tokens list"
      },
      "tokenOfOwnerByIndex(address,uint256)": {
        "details": "Gets the token ID at a given index of the tokens list of the requested owner.",
        "params": {
          "index": "uint256 representing the index to be accessed of the requested tokens list",
          "owner": "address owning the tokens list to be accessed"
        },
        "return": "uint256 token ID at the given index of the tokens list owned by the requested address"
      },
      "tokenURI(uint256)": {
        "details": "Returns an URI for a given token ID. Throws if the token ID does not exist. May return an empty string.",
        "params": {
          "tokenId": "uint256 ID of the token to query"
        }
      },
      "totalSupply()": {
        "details": "Gets the total amount of tokens stored by the contract.",
        "return": "uint256 representing the total amount of tokens"
      },
      "transferFrom(address,address,uint256)": {
        "details": "Transfers the ownership of a given token ID to another address. Usage of this method is discouraged, use `safeTransferFrom` whenever possible. Requires the msg.sender to be the owner, approved, or operator.",
        "params": {
          "from": "current owner of the token",
          "to": "address to receive the ownership of the given token ID",
          "tokenId": "uint256 ID of the token to be transferred"
        }
      }
    }
  },
  "userdoc": {
    "methods": {
      "claim(uint256)": {
        "notice": "*************************************************************************                            LOTTERY - Claim                             ***************************************************************************"
      },
      "constructor": "*************************************************************************                              Constructor                               ***************************************************************************",
      "createLottery(uint256,uint256,uint256)": {
        "notice": "*************************************************************************                         LOTTERY - Create game                          ***************************************************************************"
      },
      "receiveApproval(address,uint256,address,bytes)": {
        "notice": "*************************************************************************                         LOTTERY - Buy ticket                           ***************************************************************************"
      },
      "receiveResult(bytes32,bytes)": {
        "notice": "*************************************************************************                           LOTTERY - Resolve                            ***************************************************************************"
      },
      "roll(uint256,(address,uint256,uint256,bytes32,address,address,address,bytes32,bytes),(address,uint256,uint256,bytes32,address,address,address,bytes32,bytes),(address,uint256,uint256,bytes32,uint256,uint256,address,address,address,bytes32,bytes))": {
        "notice": "*************************************************************************                            LOTTERY - Roll                              ***************************************************************************"
      }
    }
  }
}